{
  "_format": "hh-sol-artifact-1",
  "contractName": "VotingSystem",
  "sourceName": "contracts/VotingSystem.sol",
  "abi": [
    {
      "inputs": [],
      "stateMutability": "nonpayable",
      "type": "constructor"
    },
    {
      "inputs": [
        {
          "internalType": "uint256",
          "name": "voteID",
          "type": "uint256"
        },
        {
          "internalType": "string",
          "name": "optionName",
          "type": "string"
        }
      ],
      "name": "addOption",
      "outputs": [],
      "stateMutability": "nonpayable",
      "type": "function"
    },
    {
      "inputs": [
        {
          "internalType": "uint256",
          "name": "voteID",
          "type": "uint256"
        },
        {
          "internalType": "address[]",
          "name": "voterAddreses",
          "type": "address[]"
        },
        {
          "internalType": "uint256",
          "name": "groupId",
          "type": "uint256"
        }
      ],
      "name": "addVoter",
      "outputs": [],
      "stateMutability": "nonpayable",
      "type": "function"
    },
    {
      "inputs": [],
      "name": "admin",
      "outputs": [
        {
          "internalType": "address",
          "name": "",
          "type": "address"
        }
      ],
      "stateMutability": "view",
      "type": "function"
    },
    {
      "inputs": [
        {
          "internalType": "uint256",
          "name": "voteID",
          "type": "uint256"
        },
        {
          "internalType": "uint256",
          "name": "optionIndex",
          "type": "uint256"
        }
      ],
      "name": "castVote",
      "outputs": [],
      "stateMutability": "nonpayable",
      "type": "function"
    },
    {
      "inputs": [
        {
          "internalType": "uint256",
          "name": "voteID",
          "type": "uint256"
        },
        {
          "internalType": "string",
          "name": "voteName",
          "type": "string"
        },
        {
          "internalType": "uint256",
          "name": "startTime",
          "type": "uint256"
        },
        {
          "internalType": "uint256",
          "name": "duration",
          "type": "uint256"
        },
        {
          "internalType": "uint256",
          "name": "groupId",
          "type": "uint256"
        },
        {
          "internalType": "string[]",
          "name": "voting_options",
          "type": "string[]"
        }
      ],
      "name": "createVote",
      "outputs": [],
      "stateMutability": "nonpayable",
      "type": "function"
    },
    {
      "inputs": [
        {
          "internalType": "uint256",
          "name": "groupId",
          "type": "uint256"
        }
      ],
      "name": "getAccessibleVotes",
      "outputs": [
        {
          "internalType": "uint256[]",
          "name": "voteIDs",
          "type": "uint256[]"
        },
        {
          "internalType": "string[]",
          "name": "voteNames",
          "type": "string[]"
        },
        {
          "internalType": "uint256[]",
          "name": "startVoteTimes",
          "type": "uint256[]"
        },
        {
          "internalType": "uint256[]",
          "name": "durations",
          "type": "uint256[]"
        },
        {
          "internalType": "bool[]",
          "name": "openStatuses",
          "type": "bool[]"
        }
      ],
      "stateMutability": "view",
      "type": "function"
    },
    {
      "inputs": [
        {
          "internalType": "uint256",
          "name": "voteID",
          "type": "uint256"
        },
        {
          "internalType": "uint256",
          "name": "optionIndex",
          "type": "uint256"
        }
      ],
      "name": "getOptionDetails",
      "outputs": [
        {
          "internalType": "string",
          "name": "optionName",
          "type": "string"
        },
        {
          "internalType": "uint256",
          "name": "countOption",
          "type": "uint256"
        }
      ],
      "stateMutability": "view",
      "type": "function"
    },
    {
      "inputs": [
        {
          "internalType": "uint256",
          "name": "voteID",
          "type": "uint256"
        }
      ],
      "name": "getOptionsCount",
      "outputs": [
        {
          "internalType": "uint256",
          "name": "",
          "type": "uint256"
        }
      ],
      "stateMutability": "view",
      "type": "function"
    },
    {
      "inputs": [
        {
          "internalType": "uint256",
          "name": "voteID",
          "type": "uint256"
        }
      ],
      "name": "getVote",
      "outputs": [
        {
          "internalType": "string",
          "name": "voteName",
          "type": "string"
        },
        {
          "internalType": "uint256",
          "name": "voteID2",
          "type": "uint256"
        },
        {
          "internalType": "uint256",
          "name": "startVoteTime",
          "type": "uint256"
        },
        {
          "internalType": "uint256",
          "name": "duration",
          "type": "uint256"
        },
        {
          "internalType": "uint256",
          "name": "optionsCount",
          "type": "uint256"
        },
        {
          "internalType": "bool",
          "name": "open",
          "type": "bool"
        }
      ],
      "stateMutability": "view",
      "type": "function"
    },
    {
      "inputs": [
        {
          "internalType": "uint256",
          "name": "voteID",
          "type": "uint256"
        },
        {
          "internalType": "uint256",
          "name": "optionsCount",
          "type": "uint256"
        }
      ],
      "name": "getVoteResults",
      "outputs": [
        {
          "internalType": "uint256[]",
          "name": "",
          "type": "uint256[]"
        }
      ],
      "stateMutability": "view",
      "type": "function"
    },
    {
      "inputs": [],
      "name": "nextVoteID",
      "outputs": [
        {
          "internalType": "uint256",
          "name": "",
          "type": "uint256"
        }
      ],
      "stateMutability": "view",
      "type": "function"
    },
    {
      "inputs": [
        {
          "internalType": "uint256",
          "name": "",
          "type": "uint256"
        }
      ],
      "name": "voteAdmins",
      "outputs": [
        {
          "internalType": "address",
          "name": "",
          "type": "address"
        }
      ],
      "stateMutability": "view",
      "type": "function"
    },
    {
      "inputs": [
        {
          "internalType": "uint256",
          "name": "",
          "type": "uint256"
        }
      ],
      "name": "votes",
      "outputs": [
        {
          "internalType": "string",
          "name": "voteName",
          "type": "string"
        },
        {
          "internalType": "uint256",
          "name": "voteID",
          "type": "uint256"
        },
        {
          "internalType": "uint256",
          "name": "startVoteTime",
          "type": "uint256"
        },
        {
          "internalType": "uint256",
          "name": "duration",
          "type": "uint256"
        },
        {
          "internalType": "uint256",
          "name": "groupId",
          "type": "uint256"
        },
        {
          "internalType": "uint256",
          "name": "optionsCount",
          "type": "uint256"
        },
        {
          "internalType": "bool",
          "name": "open",
          "type": "bool"
        }
      ],
      "stateMutability": "view",
      "type": "function"
    }
  ],
  "bytecode": "0x608060405234801561001057600080fd5b50336000806101000a81548173ffffffffffffffffffffffffffffffffffffffff021916908373ffffffffffffffffffffffffffffffffffffffff16021790555061267a806100606000396000f3fe608060405234801561001057600080fd5b50600436106100cf5760003560e01c80638ef42c551161008c578063c6e6a82b11610066578063c6e6a82b14610259578063e119024314610275578063ea57d5d4146102a6578063f851a440146102c2576100cf565b80638ef42c55146101d75780639efc38831461020b578063ab2f96311461023b576100cf565b80632a88f1be146100d45780632c0a3f89146100f0578063517a62571461010c578063572677541461013c5780635a55c1f01461016c5780635df81330146101a1575b600080fd5b6100ee60048036038101906100e991906115b1565b6102e0565b005b61010a60048036038101906101059190611620565b610685565b005b61012660048036038101906101219190611660565b610944565b604051610133919061169c565b60405180910390f35b61015660048036038101906101519190611660565b610964565b60405161016391906116c6565b60405180910390f35b61018660048036038101906101819190611660565b610997565b6040516101989695949392919061177b565b60405180910390f35b6101bb60048036038101906101b69190611660565b610a83565b6040516101ce97969594939291906117e3565b60405180910390f35b6101f160048036038101906101ec9190611660565b610b5a565b604051610202959493929190611ae1565b60405180910390f35b61022560048036038101906102209190611620565b610f33565b6040516102329190611b57565b60405180910390f35b610243610ffe565b604051610250919061169c565b60405180910390f35b610273600480360381019061026e9190611d0f565b611004565b005b61028f600480360381019061028a9190611620565b6111ae565b60405161029d929190611dd4565b60405180910390f35b6102c060048036038101906102bb9190611e04565b61128c565b005b6102ca61138c565b6040516102d791906116c6565b60405180910390f35b60008054906101000a900473ffffffffffffffffffffffffffffffffffffffff1673ffffffffffffffffffffffffffffffffffffffff163373ffffffffffffffffffffffffffffffffffffffff161461036e576040517f08c379a000000000000000000000000000000000000000000000000000000000815260040161036590611ed2565b60405180910390fd5b60006002600085815260200190815260200160002060010154036103c7576040517f08c379a00000000000000000000000000000000000000000000000000000000081526004016103be90611f3e565b60405180910390fd5b60006002600085815260200190815260200160002090506000816003015482600201546103f49190611f8d565b9050804210610438576040517f08c379a000000000000000000000000000000000000000000000000000000000815260040161042f9061200d565b60405180910390fd5b60005b845181101561067d57600083600601600087848151811061045f5761045e61202d565b5b602002602001015173ffffffffffffffffffffffffffffffffffffffff1673ffffffffffffffffffffffffffffffffffffffff16815260200190815260200160002054146104e2576040517f08c379a00000000000000000000000000000000000000000000000000000000081526004016104d9906120ce565b60405180910390fd5b826005016040518060a001604052808784815181106105045761050361202d565b5b602002602001015173ffffffffffffffffffffffffffffffffffffffff16815260200160011515815260200160001515815260200188815260200186815250908060018154018082558091505060019003906000526020600020906003020160009091909190915060008201518160000160006101000a81548173ffffffffffffffffffffffffffffffffffffffff021916908373ffffffffffffffffffffffffffffffffffffffff16021790555060208201518160000160146101000a81548160ff02191690831515021790555060408201518160000160156101000a81548160ff02191690831515021790555060608201518160010155608082015181600201555050826005018054905083600601600087848151811061062a5761062961202d565b5b602002602001015173ffffffffffffffffffffffffffffffffffffffff1673ffffffffffffffffffffffffffffffffffffffff16815260200190815260200160002081905550808060010191505061043b565b505050505050565b60006002600084815260200190815260200160002060010154036106de576040517f08c379a00000000000000000000000000000000000000000000000000000000081526004016106d590611f3e565b60405180910390fd5b600060026000848152602001908152602001600020905060008160060160003373ffffffffffffffffffffffffffffffffffffffff1673ffffffffffffffffffffffffffffffffffffffff16815260200190815260200160002054905060008260050160018361074e91906120ee565b8154811061075f5761075e61202d565b5b906000526020600020906003020190508060000160149054906101000a900460ff166107c0576040517f08c379a00000000000000000000000000000000000000000000000000000000081526004016107b790612194565b60405180910390fd5b8060000160159054906101000a900460ff1615610812576040517f08c379a000000000000000000000000000000000000000000000000000000000815260040161080990612200565b60405180910390fd5b6000836003015484600201546108289190611f8d565b90508360020154421015801561083e5750804211155b61087d576040517f08c379a00000000000000000000000000000000000000000000000000000000081526004016108749061226c565b60405180910390fd5b81600201548460070154146108c7576040517f08c379a00000000000000000000000000000000000000000000000000000000081526004016108be906122fe565b60405180910390fd5b60018260000160156101000a81548160ff0219169083151502179055508482600101819055506002600087815260200190815260200160002060040185815481106109155761091461202d565b5b906000526020600020906002020160010160008154809291906109379061231e565b9190505550505050505050565b600060026000838152602001908152602001600020600801549050919050565b60036020528060005260406000206000915054906101000a900473ffffffffffffffffffffffffffffffffffffffff1681565b60606000806000806000806002600089815260200190815260200160002090508060000181600101548260020154836003015484600801548560090160009054906101000a900460ff168580546109ed90612395565b80601f0160208091040260200160405190810160405280929190818152602001828054610a1990612395565b8015610a665780601f10610a3b57610100808354040283529160200191610a66565b820191906000526020600020905b815481529060010190602001808311610a4957829003601f168201915b505050505095509650965096509650965096505091939550919395565b6002602052806000526040600020600091509050806000018054610aa690612395565b80601f0160208091040260200160405190810160405280929190818152602001828054610ad290612395565b8015610b1f5780601f10610af457610100808354040283529160200191610b1f565b820191906000526020600020905b815481529060010190602001808311610b0257829003601f168201915b5050505050908060010154908060020154908060030154908060070154908060080154908060090160009054906101000a900460ff16905087565b6060806060806060600080600190505b6001548111610bb25787600260008381526020019081526020016000206007015403610b9f578180610b9b9061231e565b9250505b8080610baa9061231e565b915050610b6a565b508067ffffffffffffffff811115610bcd57610bcc611410565b5b604051908082528060200260200182016040528015610bfb5781602001602082028036833780820191505090505b5095508067ffffffffffffffff811115610c1857610c17611410565b5b604051908082528060200260200182016040528015610c4b57816020015b6060815260200190600190039081610c365790505b5094508067ffffffffffffffff811115610c6857610c67611410565b5b604051908082528060200260200182016040528015610c965781602001602082028036833780820191505090505b5093508067ffffffffffffffff811115610cb357610cb2611410565b5b604051908082528060200260200182016040528015610ce15781602001602082028036833780820191505090505b5092508067ffffffffffffffff811115610cfe57610cfd611410565b5b604051908082528060200260200182016040528015610d2c5781602001602082028036833780820191505090505b509150600080600190505b6001548111610f275788600260008381526020019081526020016000206007015403610f14576002600082815260200190815260200160002060010154888381518110610d8757610d8661202d565b5b602002602001018181525050600260008281526020019081526020016000206000018054610db490612395565b80601f0160208091040260200160405190810160405280929190818152602001828054610de090612395565b8015610e2d5780601f10610e0257610100808354040283529160200191610e2d565b820191906000526020600020905b815481529060010190602001808311610e1057829003601f168201915b5050505050878381518110610e4557610e4461202d565b5b60200260200101819052506002600082815260200190815260200160002060020154868381518110610e7a57610e7961202d565b5b6020026020010181815250506002600082815260200190815260200160002060030154858381518110610eb057610eaf61202d565b5b6020026020010181815250506002600082815260200190815260200160002060090160009054906101000a900460ff16848381518110610ef357610ef261202d565b5b6020026020010190151590811515815250508180610f109061231e565b9250505b8080610f1f9061231e565b915050610d37565b50505091939590929450565b606060008267ffffffffffffffff811115610f5157610f50611410565b5b604051908082528060200260200182016040528015610f7f5781602001602082028036833780820191505090505b50905060005b83811015610ff357600260008681526020019081526020016000206004018181548110610fb557610fb461202d565b5b906000526020600020906002020160010154828281518110610fda57610fd961202d565b5b6020026020010181815250508080600101915050610f85565b508091505092915050565b60015481565b60008054906101000a900473ffffffffffffffffffffffffffffffffffffffff1673ffffffffffffffffffffffffffffffffffffffff163373ffffffffffffffffffffffffffffffffffffffff1614611092576040517f08c379a000000000000000000000000000000000000000000000000000000000815260040161108990611ed2565b60405180910390fd5b8560018190555060006002600060015481526020019081526020016000209050858160000190816110c39190612572565b5060015481600101819055508481600201819055508381600301819055508281600701819055506000816008018190555060018160090160006101000a81548160ff02191690831515021790555060005b8251811015611150576111436001548483815181106111365761113561202d565b5b602002602001015161128c565b8080600101915050611114565b503360036000600154815260200190815260200160002060006101000a81548173ffffffffffffffffffffffffffffffffffffffff021916908373ffffffffffffffffffffffffffffffffffffffff16021790555050505050505050565b60606000806002600086815260200190815260200160002060040184815481106111db576111da61202d565b5b9060005260206000209060020201905080600001816001015481805461120090612395565b80601f016020809104026020016040519081016040528092919081815260200182805461122c90612395565b80156112795780601f1061124e57610100808354040283529160200191611279565b820191906000526020600020905b81548152906001019060200180831161125c57829003601f168201915b5050505050915092509250509250929050565b60006002600084815260200190815260200160002060010154036112e5576040517f08c379a00000000000000000000000000000000000000000000000000000000081526004016112dc90611f3e565b60405180910390fd5b60026000838152602001908152602001600020600401604051806040016040528083815260200160008152509080600181540180825580915050600190039060005260206000209060020201600090919091909150600082015181600001908161134f9190612572565b506020820151816001015550506002600083815260200190815260200160002060080160008154809291906113839061231e565b91905055505050565b60008054906101000a900473ffffffffffffffffffffffffffffffffffffffff1681565b6000604051905090565b600080fd5b600080fd5b6000819050919050565b6113d7816113c4565b81146113e257600080fd5b50565b6000813590506113f4816113ce565b92915050565b600080fd5b6000601f19601f8301169050919050565b7f4e487b7100000000000000000000000000000000000000000000000000000000600052604160045260246000fd5b611448826113ff565b810181811067ffffffffffffffff8211171561146757611466611410565b5b80604052505050565b600061147a6113b0565b9050611486828261143f565b919050565b600067ffffffffffffffff8211156114a6576114a5611410565b5b602082029050602081019050919050565b600080fd5b600073ffffffffffffffffffffffffffffffffffffffff82169050919050565b60006114e7826114bc565b9050919050565b6114f7816114dc565b811461150257600080fd5b50565b600081359050611514816114ee565b92915050565b600061152d6115288461148b565b611470565b905080838252602082019050602084028301858111156115505761154f6114b7565b5b835b8181101561157957806115658882611505565b845260208401935050602081019050611552565b5050509392505050565b600082601f830112611598576115976113fa565b5b81356115a884826020860161151a565b91505092915050565b6000806000606084860312156115ca576115c96113ba565b5b60006115d8868287016113e5565b935050602084013567ffffffffffffffff8111156115f9576115f86113bf565b5b61160586828701611583565b9250506040611616868287016113e5565b9150509250925092565b60008060408385031215611637576116366113ba565b5b6000611645858286016113e5565b9250506020611656858286016113e5565b9150509250929050565b600060208284031215611676576116756113ba565b5b6000611684848285016113e5565b91505092915050565b611696816113c4565b82525050565b60006020820190506116b1600083018461168d565b92915050565b6116c0816114dc565b82525050565b60006020820190506116db60008301846116b7565b92915050565b600081519050919050565b600082825260208201905092915050565b60005b8381101561171b578082015181840152602081019050611700565b60008484015250505050565b6000611732826116e1565b61173c81856116ec565b935061174c8185602086016116fd565b611755816113ff565b840191505092915050565b60008115159050919050565b61177581611760565b82525050565b600060c08201905081810360008301526117958189611727565b90506117a4602083018861168d565b6117b1604083018761168d565b6117be606083018661168d565b6117cb608083018561168d565b6117d860a083018461176c565b979650505050505050565b600060e08201905081810360008301526117fd818a611727565b905061180c602083018961168d565b611819604083018861168d565b611826606083018761168d565b611833608083018661168d565b61184060a083018561168d565b61184d60c083018461176c565b98975050505050505050565b600081519050919050565b600082825260208201905092915050565b6000819050602082019050919050565b61188e816113c4565b82525050565b60006118a08383611885565b60208301905092915050565b6000602082019050919050565b60006118c482611859565b6118ce8185611864565b93506118d983611875565b8060005b8381101561190a5781516118f18882611894565b97506118fc836118ac565b9250506001810190506118dd565b5085935050505092915050565b600081519050919050565b600082825260208201905092915050565b6000819050602082019050919050565b600082825260208201905092915050565b600061195f826116e1565b6119698185611943565b93506119798185602086016116fd565b611982816113ff565b840191505092915050565b60006119998383611954565b905092915050565b6000602082019050919050565b60006119b982611917565b6119c38185611922565b9350836020820285016119d585611933565b8060005b85811015611a1157848403895281516119f2858261198d565b94506119fd836119a1565b925060208a019950506001810190506119d9565b50829750879550505050505092915050565b600081519050919050565b600082825260208201905092915050565b6000819050602082019050919050565b611a5881611760565b82525050565b6000611a6a8383611a4f565b60208301905092915050565b6000602082019050919050565b6000611a8e82611a23565b611a988185611a2e565b9350611aa383611a3f565b8060005b83811015611ad4578151611abb8882611a5e565b9750611ac683611a76565b925050600181019050611aa7565b5085935050505092915050565b600060a0820190508181036000830152611afb81886118b9565b90508181036020830152611b0f81876119ae565b90508181036040830152611b2381866118b9565b90508181036060830152611b3781856118b9565b90508181036080830152611b4b8184611a83565b90509695505050505050565b60006020820190508181036000830152611b7181846118b9565b905092915050565b600080fd5b600067ffffffffffffffff821115611b9957611b98611410565b5b611ba2826113ff565b9050602081019050919050565b82818337600083830152505050565b6000611bd1611bcc84611b7e565b611470565b905082815260208101848484011115611bed57611bec611b79565b5b611bf8848285611baf565b509392505050565b600082601f830112611c1557611c146113fa565b5b8135611c25848260208601611bbe565b91505092915050565b600067ffffffffffffffff821115611c4957611c48611410565b5b602082029050602081019050919050565b6000611c6d611c6884611c2e565b611470565b90508083825260208201905060208402830185811115611c9057611c8f6114b7565b5b835b81811015611cd757803567ffffffffffffffff811115611cb557611cb46113fa565b5b808601611cc28982611c00565b85526020850194505050602081019050611c92565b5050509392505050565b600082601f830112611cf657611cf56113fa565b5b8135611d06848260208601611c5a565b91505092915050565b60008060008060008060c08789031215611d2c57611d2b6113ba565b5b6000611d3a89828a016113e5565b965050602087013567ffffffffffffffff811115611d5b57611d5a6113bf565b5b611d6789828a01611c00565b9550506040611d7889828a016113e5565b9450506060611d8989828a016113e5565b9350506080611d9a89828a016113e5565b92505060a087013567ffffffffffffffff811115611dbb57611dba6113bf565b5b611dc789828a01611ce1565b9150509295509295509295565b60006040820190508181036000830152611dee8185611727565b9050611dfd602083018461168d565b9392505050565b60008060408385031215611e1b57611e1a6113ba565b5b6000611e29858286016113e5565b925050602083013567ffffffffffffffff811115611e4a57611e496113bf565b5b611e5685828601611c00565b9150509250929050565b7f4f6e6c79207468652041646d696e6973747261746f7220616c6c6f776564206d60008201527f616b65207468697320616374696f6e0000000000000000000000000000000000602082015250565b6000611ebc602f836116ec565b9150611ec782611e60565b604082019050919050565b60006020820190508181036000830152611eeb81611eaf565b9050919050565b7f566f746520646f6573206e6f7420657869737400000000000000000000000000600082015250565b6000611f286013836116ec565b9150611f3382611ef2565b602082019050919050565b60006020820190508181036000830152611f5781611f1b565b9050919050565b7f4e487b7100000000000000000000000000000000000000000000000000000000600052601160045260246000fd5b6000611f98826113c4565b9150611fa3836113c4565b9250828201905080821115611fbb57611fba611f5e565b5b92915050565b7f566f74696e672074696d652068617320656e6465642e00000000000000000000600082015250565b6000611ff76016836116ec565b915061200282611fc1565b602082019050919050565b6000602082019050818103600083015261202681611fea565b9050919050565b7f4e487b7100000000000000000000000000000000000000000000000000000000600052603260045260246000fd5b7f54686520766f7465722065786973747320616c726561647920696e207468652060008201527f73797374656d2e00000000000000000000000000000000000000000000000000602082015250565b60006120b86027836116ec565b91506120c38261205c565b604082019050919050565b600060208201905081810360008301526120e7816120ab565b9050919050565b60006120f9826113c4565b9150612104836113c4565b925082820390508181111561211c5761211b611f5e565b5b92915050565b7f566f746572206973206e6f74207265676973746572656420666f72207468697360008201527f20766f74652e0000000000000000000000000000000000000000000000000000602082015250565b600061217e6026836116ec565b915061218982612122565b604082019050919050565b600060208201905081810360008301526121ad81612171565b9050919050565b7f566f7465722068617320616c726561647920766f7465642e0000000000000000600082015250565b60006121ea6018836116ec565b91506121f5826121b4565b602082019050919050565b60006020820190508181036000830152612219816121dd565b9050919050565b7f566f74696e67206973206e6f742063757272656e746c79206163746976652e00600082015250565b6000612256601f836116ec565b915061226182612220565b602082019050919050565b6000602082019050818103600083015261228581612249565b9050919050565b7f566f746572206973206e6f742070617274206f66207468652067726f7570206660008201527f6f72207468697320766f74652e00000000000000000000000000000000000000602082015250565b60006122e8602d836116ec565b91506122f38261228c565b604082019050919050565b60006020820190508181036000830152612317816122db565b9050919050565b6000612329826113c4565b91507fffffffffffffffffffffffffffffffffffffffffffffffffffffffffffffffff820361235b5761235a611f5e565b5b600182019050919050565b7f4e487b7100000000000000000000000000000000000000000000000000000000600052602260045260246000fd5b600060028204905060018216806123ad57607f821691505b6020821081036123c0576123bf612366565b5b50919050565b60008190508160005260206000209050919050565b60006020601f8301049050919050565b600082821b905092915050565b6000600883026124287fffffffffffffffffffffffffffffffffffffffffffffffffffffffffffffffff826123eb565b61243286836123eb565b95508019841693508086168417925050509392505050565b6000819050919050565b600061246f61246a612465846113c4565b61244a565b6113c4565b9050919050565b6000819050919050565b61248983612454565b61249d61249582612476565b8484546123f8565b825550505050565b600090565b6124b26124a5565b6124bd818484612480565b505050565b5b818110156124e1576124d66000826124aa565b6001810190506124c3565b5050565b601f821115612526576124f7816123c6565b612500846123db565b8101602085101561250f578190505b61252361251b856123db565b8301826124c2565b50505b505050565b600082821c905092915050565b60006125496000198460080261252b565b1980831691505092915050565b60006125628383612538565b9150826002028217905092915050565b61257b826116e1565b67ffffffffffffffff81111561259457612593611410565b5b61259e8254612395565b6125a98282856124e5565b600060209050601f8311600181146125dc57600084156125ca578287015190505b6125d48582612556565b86555061263c565b601f1984166125ea866123c6565b60005b82811015612612578489015182556001820191506020850194506020810190506125ed565b8683101561262f578489015161262b601f891682612538565b8355505b6001600288020188555050505b50505050505056fea26469706673582212205b180a70d4a441515f65d19c2a38008b3bc84491dd95a94864bf436e1b4a629264736f6c63430008180033",
  "linkReferences": {},
  "deployedLinkReferences": {}
}