{"contracts/VotingSystem.sol":{"VotingSystem":{"abi":[{"inputs":[],"stateMutability":"nonpayable","type":"constructor"},{"inputs":[{"internalType":"uint256","name":"voteID","type":"uint256"},{"internalType":"address","name":"voterAddreses","type":"address"},{"internalType":"uint256","name":"groupId","type":"uint256"}],"name":"addOneVoter","outputs":[],"stateMutability":"nonpayable","type":"function"},{"inputs":[{"internalType":"uint256","name":"voteID","type":"uint256"},{"internalType":"string","name":"optionName","type":"string"}],"name":"addOption","outputs":[],"stateMutability":"nonpayable","type":"function"},{"inputs":[{"internalType":"uint256","name":"voteID","type":"uint256"},{"internalType":"address[]","name":"voterAddreses","type":"address[]"},{"internalType":"uint256","name":"groupId","type":"uint256"}],"name":"addVoters","outputs":[],"stateMutability":"nonpayable","type":"function"},{"inputs":[],"name":"admin","outputs":[{"internalType":"address","name":"","type":"address"}],"stateMutability":"view","type":"function"},{"inputs":[{"internalType":"uint256","name":"voteID","type":"uint256"},{"internalType":"uint256","name":"optionIndex","type":"uint256"}],"name":"castVote","outputs":[],"stateMutability":"nonpayable","type":"function"},{"inputs":[{"internalType":"uint256","name":"voteID","type":"uint256"},{"internalType":"string","name":"voteName","type":"string"},{"internalType":"uint256","name":"startTime","type":"uint256"},{"internalType":"uint256","name":"duration","type":"uint256"},{"internalType":"uint256","name":"groupId","type":"uint256"},{"internalType":"string[]","name":"voting_options","type":"string[]"}],"name":"createVote","outputs":[],"stateMutability":"nonpayable","type":"function"},{"inputs":[{"internalType":"uint256","name":"groupId","type":"uint256"}],"name":"getAccessibleVotes","outputs":[{"internalType":"uint256[]","name":"voteIDs","type":"uint256[]"},{"internalType":"string[]","name":"voteNames","type":"string[]"},{"internalType":"uint256[]","name":"startVoteTimes","type":"uint256[]"},{"internalType":"uint256[]","name":"durations","type":"uint256[]"},{"internalType":"bool[]","name":"openStatuses","type":"bool[]"}],"stateMutability":"view","type":"function"},{"inputs":[{"internalType":"uint256","name":"voteID","type":"uint256"},{"internalType":"uint256","name":"optionIndex","type":"uint256"}],"name":"getOptionDetails","outputs":[{"internalType":"string","name":"optionName","type":"string"},{"internalType":"uint256","name":"countOption","type":"uint256"}],"stateMutability":"view","type":"function"},{"inputs":[{"internalType":"uint256","name":"voteID","type":"uint256"}],"name":"getOptionsCount","outputs":[{"internalType":"uint256","name":"","type":"uint256"}],"stateMutability":"view","type":"function"},{"inputs":[{"internalType":"uint256","name":"voteID","type":"uint256"}],"name":"getTotalVotes","outputs":[{"internalType":"uint256","name":"","type":"uint256"}],"stateMutability":"view","type":"function"},{"inputs":[{"internalType":"uint256","name":"voteID","type":"uint256"}],"name":"getVote","outputs":[{"internalType":"string","name":"voteName","type":"string"},{"internalType":"uint256","name":"voteID2","type":"uint256"},{"internalType":"uint256","name":"startVoteTime","type":"uint256"},{"internalType":"uint256","name":"duration","type":"uint256"},{"internalType":"uint256","name":"optionsCount","type":"uint256"},{"internalType":"bool","name":"open","type":"bool"}],"stateMutability":"view","type":"function"},{"inputs":[],"name":"getVoteResults","outputs":[{"internalType":"uint256[]","name":"openVoteIDs","type":"uint256[]"},{"internalType":"uint256[]","name":"openVoteCounts","type":"uint256[]"},{"internalType":"uint256[]","name":"closedVoteIDs","type":"uint256[]"},{"internalType":"string[]","name":"closedVoteNames","type":"string[]"},{"internalType":"string[][]","name":"closedOptionNames","type":"string[][]"},{"internalType":"uint256[][]","name":"closedOptionCounts","type":"uint256[][]"}],"stateMutability":"view","type":"function"},{"inputs":[{"internalType":"uint256","name":"voteID","type":"uint256"},{"internalType":"address","name":"userAddress","type":"address"}],"name":"hasVoted","outputs":[{"internalType":"bool","name":"","type":"bool"}],"stateMutability":"view","type":"function"},{"inputs":[],"name":"nextVoteID","outputs":[{"internalType":"uint256","name":"","type":"uint256"}],"stateMutability":"view","type":"function"},{"inputs":[{"internalType":"uint256","name":"","type":"uint256"}],"name":"voteAdmins","outputs":[{"internalType":"address","name":"","type":"address"}],"stateMutability":"view","type":"function"},{"inputs":[{"internalType":"uint256","name":"","type":"uint256"}],"name":"votes","outputs":[{"internalType":"string","name":"voteName","type":"string"},{"internalType":"uint256","name":"voteID","type":"uint256"},{"internalType":"uint256","name":"startVoteTime","type":"uint256"},{"internalType":"uint256","name":"duration","type":"uint256"},{"internalType":"uint256","name":"groupId","type":"uint256"},{"internalType":"uint256","name":"optionsCount","type":"uint256"},{"internalType":"bool","name":"open","type":"bool"}],"stateMutability":"view","type":"function"}],"evm":{"bytecode":{"linkReferences":{},"object":"608060405234801561001057600080fd5b50336000806101000a81548173ffffffffffffffffffffffffffffffffffffffff021916908373ffffffffffffffffffffffffffffffffffffffff16021790555061344b806100606000396000f3fe608060405234801561001057600080fd5b50600436106101005760003560e01c80635df8133011610097578063c6e6a82b11610066578063c6e6a82b146102f9578063e119024314610315578063ea57d5d414610346578063f851a4401461036257610100565b80635df813301461024e57806386a66dc3146102845780638ef42c55146102a7578063ab2f9631146102db57610100565b8063517a6257116100d3578063517a62571461019d57806357267754146101cd5780635a3d4a3c146101fd5780635a55c1f01461021957610100565b80632c0a3f89146101055780632ce35e11146101215780634385963214610151578063485660a114610181575b600080fd5b61011f600480360381019061011a9190611ecd565b610380565b005b61013b60048036038101906101369190611f0d565b61063f565b6040516101489190611f49565b60405180910390f35b61016b60048036038101906101669190611fc2565b6106c8565b604051610178919061201d565b60405180910390f35b61019b60048036038101906101969190612038565b61078b565b005b6101b760048036038101906101b29190611f0d565b610a95565b6040516101c49190611f49565b60405180910390f35b6101e760048036038101906101e29190611f0d565b610ab5565b6040516101f4919061209a565b60405180910390f35b6102176004803603810190610212919061220e565b610ae8565b005b610233600480360381019061022e9190611f0d565b610e53565b604051610245969594939291906122fc565b60405180910390f35b61026860048036038101906102639190611f0d565b610f3f565b60405161027b9796959493929190612364565b60405180910390f35b61028c611016565b60405161029e9695949392919061281d565b60405180910390f35b6102c160048036038101906102bc9190611f0d565b6116eb565b6040516102d2959493929190612966565b60405180910390f35b6102e3611ac4565b6040516102f09190611f49565b60405180910390f35b610313600480360381019061030e9190612b72565b611aca565b005b61032f600480360381019061032a9190611ecd565b611c81565b60405161033d929190612c37565b60405180910390f35b610360600480360381019061035b9190612c67565b611d5f565b005b61036a611e5f565b604051610377919061209a565b60405180910390f35b60006002600084815260200190815260200160002060010154036103d9576040517f08c379a00000000000000000000000000000000000000000000000000000000081526004016103d090612d0f565b60405180910390fd5b600060026000848152602001908152602001600020905060008160060160003373ffffffffffffffffffffffffffffffffffffffff1673ffffffffffffffffffffffffffffffffffffffff1681526020019081526020016000205490506000826005016001836104499190612d5e565b8154811061045a57610459612d92565b5b906000526020600020906003020190508060000160149054906101000a900460ff166104bb576040517f08c379a00000000000000000000000000000000000000000000000000000000081526004016104b290612e33565b60405180910390fd5b8060000160159054906101000a900460ff161561050d576040517f08c379a000000000000000000000000000000000000000000000000000000000815260040161050490612e9f565b60405180910390fd5b6000836003015484600201546105239190612ebf565b9050836002015442101580156105395750804211155b610578576040517f08c379a000000000000000000000000000000000000000000000000000000000815260040161056f90612f3f565b60405180910390fd5b81600201548460070154146105c2576040517f08c379a00000000000000000000000000000000000000000000000000000000081526004016105b990612fd1565b60405180910390fd5b60018260000160156101000a81548160ff0219169083151502179055508482600101819055506002600087815260200190815260200160002060040185815481106106105761060f612d92565b5b9060005260206000209060020201600101600081548092919061063290612ff1565b9190505550505050505050565b6000806000905060005b60026000858152602001908152602001600020600401805490508110156106be5760026000858152602001908152602001600020600401818154811061069257610691612d92565b5b906000526020600020906002020160010154826106af9190612ebf565b91508080600101915050610649565b5080915050919050565b60008060026000858152602001908152602001600020905060008160060160008573ffffffffffffffffffffffffffffffffffffffff1673ffffffffffffffffffffffffffffffffffffffff1681526020019081526020016000205490506000810361073957600092505050610785565b60008260050160018361074c9190612d5e565b8154811061075d5761075c612d92565b5b906000526020600020906003020190508060000160159054906101000a900460ff1693505050505b92915050565b60008054906101000a900473ffffffffffffffffffffffffffffffffffffffff1673ffffffffffffffffffffffffffffffffffffffff163373ffffffffffffffffffffffffffffffffffffffff1614610819576040517f08c379a0000000000000000000000000000000000000000000000000000000008152600401610810906130ab565b60405180910390fd5b6000600260008581526020019081526020016000206001015403610872576040517f08c379a000000000000000000000000000000000000000000000000000000000815260040161086990612d0f565b60405180910390fd5b600060026000858152602001908152602001600020905060008160030154826002015461089f9190612ebf565b90508042106108e3576040517f08c379a00000000000000000000000000000000000000000000000000000000081526004016108da90613117565b60405180910390fd5b60008260060160008673ffffffffffffffffffffffffffffffffffffffff1673ffffffffffffffffffffffffffffffffffffffff1681526020019081526020016000205414610933575050610a90565b816005016040518060a001604052808673ffffffffffffffffffffffffffffffffffffffff16815260200160011515815260200160001515815260200187815260200185815250908060018154018082558091505060019003906000526020600020906003020160009091909190915060008201518160000160006101000a81548173ffffffffffffffffffffffffffffffffffffffff021916908373ffffffffffffffffffffffffffffffffffffffff16021790555060208201518160000160146101000a81548160ff02191690831515021790555060408201518160000160156101000a81548160ff0219169083151502179055506060820151816001015560808201518160020155505081600501805490508260060160008673ffffffffffffffffffffffffffffffffffffffff1673ffffffffffffffffffffffffffffffffffffffff1681526020019081526020016000208190555050505b505050565b600060026000838152602001908152602001600020600801549050919050565b60036020528060005260406000206000915054906101000a900473ffffffffffffffffffffffffffffffffffffffff1681565b60008054906101000a900473ffffffffffffffffffffffffffffffffffffffff1673ffffffffffffffffffffffffffffffffffffffff163373ffffffffffffffffffffffffffffffffffffffff1614610b76576040517f08c379a0000000000000000000000000000000000000000000000000000000008152600401610b6d906130ab565b60405180910390fd5b6000600260008581526020019081526020016000206001015403610bcf576040517f08c379a0000000000000000000000000000000000000000000000000000000008152600401610bc690612d0f565b60405180910390fd5b6000600260008581526020019081526020016000209050600081600301548260020154610bfc9190612ebf565b9050804210610c40576040517f08c379a0000000000000000000000000000000000000000000000000000000008152600401610c3790613117565b60405180910390fd5b60005b8451811015610e4b576000836006016000878481518110610c6757610c66612d92565b5b602002602001015173ffffffffffffffffffffffffffffffffffffffff1673ffffffffffffffffffffffffffffffffffffffff1681526020019081526020016000205403610e3e57826005016040518060a00160405280878481518110610cd157610cd0612d92565b5b602002602001015173ffffffffffffffffffffffffffffffffffffffff16815260200160011515815260200160001515815260200188815260200186815250908060018154018082558091505060019003906000526020600020906003020160009091909190915060008201518160000160006101000a81548173ffffffffffffffffffffffffffffffffffffffff021916908373ffffffffffffffffffffffffffffffffffffffff16021790555060208201518160000160146101000a81548160ff02191690831515021790555060408201518160000160156101000a81548160ff021916908315150217905550606082015181600101556080820151816002015550508260050180549050836006016000878481518110610df757610df6612d92565b5b602002602001015173ffffffffffffffffffffffffffffffffffffffff1673ffffffffffffffffffffffffffffffffffffffff168152602001908152602001600020819055505b8080600101915050610c43565b505050505050565b60606000806000806000806002600089815260200190815260200160002090508060000181600101548260020154836003015484600801548560090160009054906101000a900460ff16858054610ea990613166565b80601f0160208091040260200160405190810160405280929190818152602001828054610ed590613166565b8015610f225780601f10610ef757610100808354040283529160200191610f22565b820191906000526020600020905b815481529060010190602001808311610f0557829003601f168201915b505050505095509650965096509650965096505091939550919395565b6002602052806000526040600020600091509050806000018054610f6290613166565b80601f0160208091040260200160405190810160405280929190818152602001828054610f8e90613166565b8015610fdb5780601f10610fb057610100808354040283529160200191610fdb565b820191906000526020600020905b815481529060010190602001808311610fbe57829003601f168201915b5050505050908060010154908060020154908060030154908060070154908060080154908060090160009054906101000a900460ff16905087565b6060806060806060806000806000600190505b6001548111611090576002600082815260200190815260200160002060090160009054906101000a900460ff161561106e57828061106690612ff1565b93505061107d565b818061107990612ff1565b9250505b808061108890612ff1565b915050611029565b508167ffffffffffffffff8111156110ab576110aa6120cb565b5b6040519080825280602002602001820160405280156110d95781602001602082028036833780820191505090505b5097508167ffffffffffffffff8111156110f6576110f56120cb565b5b6040519080825280602002602001820160405280156111245781602001602082028036833780820191505090505b5096508067ffffffffffffffff811115611141576111406120cb565b5b60405190808252806020026020018201604052801561116f5781602001602082028036833780820191505090505b5095508067ffffffffffffffff81111561118c5761118b6120cb565b5b6040519080825280602002602001820160405280156111bf57816020015b60608152602001906001900390816111aa5790505b5094508067ffffffffffffffff8111156111dc576111db6120cb565b5b60405190808252806020026020018201604052801561120f57816020015b60608152602001906001900390816111fa5790505b5093508067ffffffffffffffff81111561122c5761122b6120cb565b5b60405190808252806020026020018201604052801561125f57816020015b606081526020019060019003908161124a5790505b5092506000806000600190505b60015481116116de576002600082815260200190815260200160002060090160009054906101000a900460ff16156113255760026000828152602001908152602001600020600101548b84815181106112c8576112c7612d92565b5b6020026020010181815250506112f3600260008381526020019081526020016000206001015461063f565b8a848151811061130657611305612d92565b5b602002602001018181525050828061131d90612ff1565b9350506116cb565b600260008281526020019081526020016000206001015489838151811061134f5761134e612d92565b5b60200260200101818152505060026000828152602001908152602001600020600001805461137c90613166565b80601f01602080910402602001604051908101604052809291908181526020018280546113a890613166565b80156113f55780601f106113ca576101008083540402835291602001916113f5565b820191906000526020600020905b8154815290600101906020018083116113d857829003601f168201915b505050505088838151811061140d5761140c612d92565b5b6020026020010181905250600260008281526020019081526020016000206004018054905067ffffffffffffffff81111561144b5761144a6120cb565b5b60405190808252806020026020018201604052801561147e57816020015b60608152602001906001900390816114695790505b5087838151811061149257611491612d92565b5b6020026020010181905250600260008281526020019081526020016000206004018054905067ffffffffffffffff8111156114d0576114cf6120cb565b5b6040519080825280602002602001820160405280156114fe5781602001602082028036833780820191505090505b5086838151811061151257611511612d92565b5b602002602001018190525060005b60026000838152602001908152602001600020600401805490508110156116bb5760026000838152602001908152602001600020600401818154811061156957611568612d92565b5b9060005260206000209060020201600001805461158590613166565b80601f01602080910402602001604051908101604052809291908181526020018280546115b190613166565b80156115fe5780601f106115d3576101008083540402835291602001916115fe565b820191906000526020600020905b8154815290600101906020018083116115e157829003601f168201915b505050505088848151811061161657611615612d92565b5b602002602001015182815181106116305761162f612d92565b5b602002602001018190525060026000838152602001908152602001600020600401818154811061166357611662612d92565b5b90600052602060002090600202016001015487848151811061168857611687612d92565b5b602002602001015182815181106116a2576116a1612d92565b5b6020026020010181815250508080600101915050611520565b5081806116c790612ff1565b9250505b80806116d690612ff1565b91505061126c565b5050505050909192939495565b6060806060806060600080600190505b6001548111611743578760026000838152602001908152602001600020600701540361173057818061172c90612ff1565b9250505b808061173b90612ff1565b9150506116fb565b508067ffffffffffffffff81111561175e5761175d6120cb565b5b60405190808252806020026020018201604052801561178c5781602001602082028036833780820191505090505b5095508067ffffffffffffffff8111156117a9576117a86120cb565b5b6040519080825280602002602001820160405280156117dc57816020015b60608152602001906001900390816117c75790505b5094508067ffffffffffffffff8111156117f9576117f86120cb565b5b6040519080825280602002602001820160405280156118275781602001602082028036833780820191505090505b5093508067ffffffffffffffff811115611844576118436120cb565b5b6040519080825280602002602001820160405280156118725781602001602082028036833780820191505090505b5092508067ffffffffffffffff81111561188f5761188e6120cb565b5b6040519080825280602002602001820160405280156118bd5781602001602082028036833780820191505090505b509150600080600190505b6001548111611ab85788600260008381526020019081526020016000206007015403611aa557600260008281526020019081526020016000206001015488838151811061191857611917612d92565b5b60200260200101818152505060026000828152602001908152602001600020600001805461194590613166565b80601f016020809104026020016040519081016040528092919081815260200182805461197190613166565b80156119be5780601f10611993576101008083540402835291602001916119be565b820191906000526020600020905b8154815290600101906020018083116119a157829003601f168201915b50505050508783815181106119d6576119d5612d92565b5b60200260200101819052506002600082815260200190815260200160002060020154868381518110611a0b57611a0a612d92565b5b6020026020010181815250506002600082815260200190815260200160002060030154858381518110611a4157611a40612d92565b5b6020026020010181815250506002600082815260200190815260200160002060090160009054906101000a900460ff16848381518110611a8457611a83612d92565b5b6020026020010190151590811515815250508180611aa190612ff1565b9250505b8080611ab090612ff1565b9150506118c8565b50505091939590929450565b60015481565b60008054906101000a900473ffffffffffffffffffffffffffffffffffffffff1673ffffffffffffffffffffffffffffffffffffffff163373ffffffffffffffffffffffffffffffffffffffff1614611b58576040517f08c379a0000000000000000000000000000000000000000000000000000000008152600401611b4f906130ab565b60405180910390fd5b856001819055506000600260006001548152602001908152602001600020905085816000019081611b899190613343565b5060015481600101819055508481600201819055508381600301819055508281600701819055506000816008018190555060018160090160006101000a81548160ff02191690831515021790555060005b8251811015611c1657611c09600154848381518110611bfc57611bfb612d92565b5b6020026020010151611d5f565b8080600101915050611bda565b503360036000600154815260200190815260200160002060006101000a81548173ffffffffffffffffffffffffffffffffffffffff021916908373ffffffffffffffffffffffffffffffffffffffff160217905550611c78600154338561078b565b50505050505050565b6060600080600260008681526020019081526020016000206004018481548110611cae57611cad612d92565b5b90600052602060002090600202019050806000018160010154818054611cd390613166565b80601f0160208091040260200160405190810160405280929190818152602001828054611cff90613166565b8015611d4c5780601f10611d2157610100808354040283529160200191611d4c565b820191906000526020600020905b815481529060010190602001808311611d2f57829003601f168201915b5050505050915092509250509250929050565b6000600260008481526020019081526020016000206001015403611db8576040517f08c379a0000000000000000000000000000000000000000000000000000000008152600401611daf90612d0f565b60405180910390fd5b600260008381526020019081526020016000206004016040518060400160405280838152602001600081525090806001815401808255809150506001900390600052602060002090600202016000909190919091506000820151816000019081611e229190613343565b50602082015181600101555050600260008381526020019081526020016000206008016000815480929190611e5690612ff1565b91905055505050565b60008054906101000a900473ffffffffffffffffffffffffffffffffffffffff1681565b6000604051905090565b600080fd5b600080fd5b6000819050919050565b611eaa81611e97565b8114611eb557600080fd5b50565b600081359050611ec781611ea1565b92915050565b60008060408385031215611ee457611ee3611e8d565b5b6000611ef285828601611eb8565b9250506020611f0385828601611eb8565b9150509250929050565b600060208284031215611f2357611f22611e8d565b5b6000611f3184828501611eb8565b91505092915050565b611f4381611e97565b82525050565b6000602082019050611f5e6000830184611f3a565b92915050565b600073ffffffffffffffffffffffffffffffffffffffff82169050919050565b6000611f8f82611f64565b9050919050565b611f9f81611f84565b8114611faa57600080fd5b50565b600081359050611fbc81611f96565b92915050565b60008060408385031215611fd957611fd8611e8d565b5b6000611fe785828601611eb8565b9250506020611ff885828601611fad565b9150509250929050565b60008115159050919050565b61201781612002565b82525050565b6000602082019050612032600083018461200e565b92915050565b60008060006060848603121561205157612050611e8d565b5b600061205f86828701611eb8565b935050602061207086828701611fad565b925050604061208186828701611eb8565b9150509250925092565b61209481611f84565b82525050565b60006020820190506120af600083018461208b565b92915050565b600080fd5b6000601f19601f8301169050919050565b7f4e487b7100000000000000000000000000000000000000000000000000000000600052604160045260246000fd5b612103826120ba565b810181811067ffffffffffffffff82111715612122576121216120cb565b5b80604052505050565b6000612135611e83565b905061214182826120fa565b919050565b600067ffffffffffffffff821115612161576121606120cb565b5b602082029050602081019050919050565b600080fd5b600061218a61218584612146565b61212b565b905080838252602082019050602084028301858111156121ad576121ac612172565b5b835b818110156121d657806121c28882611fad565b8452602084019350506020810190506121af565b5050509392505050565b600082601f8301126121f5576121f46120b5565b5b8135612205848260208601612177565b91505092915050565b60008060006060848603121561222757612226611e8d565b5b600061223586828701611eb8565b935050602084013567ffffffffffffffff81111561225657612255611e92565b5b612262868287016121e0565b925050604061227386828701611eb8565b9150509250925092565b600081519050919050565b600082825260208201905092915050565b60005b838110156122b757808201518184015260208101905061229c565b60008484015250505050565b60006122ce8261227d565b6122d88185612288565b93506122e8818560208601612299565b6122f1816120ba565b840191505092915050565b600060c082019050818103600083015261231681896122c3565b90506123256020830188611f3a565b6123326040830187611f3a565b61233f6060830186611f3a565b61234c6080830185611f3a565b61235960a083018461200e565b979650505050505050565b600060e082019050818103600083015261237e818a6122c3565b905061238d6020830189611f3a565b61239a6040830188611f3a565b6123a76060830187611f3a565b6123b46080830186611f3a565b6123c160a0830185611f3a565b6123ce60c083018461200e565b98975050505050505050565b600081519050919050565b600082825260208201905092915050565b6000819050602082019050919050565b61240f81611e97565b82525050565b60006124218383612406565b60208301905092915050565b6000602082019050919050565b6000612445826123da565b61244f81856123e5565b935061245a836123f6565b8060005b8381101561248b5781516124728882612415565b975061247d8361242d565b92505060018101905061245e565b5085935050505092915050565b600081519050919050565b600082825260208201905092915050565b6000819050602082019050919050565b600082825260208201905092915050565b60006124e08261227d565b6124ea81856124c4565b93506124fa818560208601612299565b612503816120ba565b840191505092915050565b600061251a83836124d5565b905092915050565b6000602082019050919050565b600061253a82612498565b61254481856124a3565b935083602082028501612556856124b4565b8060005b858110156125925784840389528151612573858261250e565b945061257e83612522565b925060208a0199505060018101905061255a565b50829750879550505050505092915050565b600081519050919050565b600082825260208201905092915050565b6000819050602082019050919050565b600082825260208201905092915050565b60006125ec82612498565b6125f681856125d0565b935083602082028501612608856124b4565b8060005b858110156126445784840389528151612625858261250e565b945061263083612522565b925060208a0199505060018101905061260c565b50829750879550505050505092915050565b600061266283836125e1565b905092915050565b6000602082019050919050565b6000612682826125a4565b61268c81856125af565b93508360208202850161269e856125c0565b8060005b858110156126da57848403895281516126bb8582612656565b94506126c68361266a565b925060208a019950506001810190506126a2565b50829750879550505050505092915050565b600081519050919050565b600082825260208201905092915050565b6000819050602082019050919050565b600082825260208201905092915050565b6000612734826123da565b61273e8185612718565b9350612749836123f6565b8060005b8381101561277a5781516127618882612415565b975061276c8361242d565b92505060018101905061274d565b5085935050505092915050565b60006127938383612729565b905092915050565b6000602082019050919050565b60006127b3826126ec565b6127bd81856126f7565b9350836020820285016127cf85612708565b8060005b8581101561280b57848403895281516127ec8582612787565b94506127f78361279b565b925060208a019950506001810190506127d3565b50829750879550505050505092915050565b600060c0820190508181036000830152612837818961243a565b9050818103602083015261284b818861243a565b9050818103604083015261285f818761243a565b90508181036060830152612873818661252f565b905081810360808301526128878185612677565b905081810360a083015261289b81846127a8565b9050979650505050505050565b600081519050919050565b600082825260208201905092915050565b6000819050602082019050919050565b6128dd81612002565b82525050565b60006128ef83836128d4565b60208301905092915050565b6000602082019050919050565b6000612913826128a8565b61291d81856128b3565b9350612928836128c4565b8060005b8381101561295957815161294088826128e3565b975061294b836128fb565b92505060018101905061292c565b5085935050505092915050565b600060a0820190508181036000830152612980818861243a565b90508181036020830152612994818761252f565b905081810360408301526129a8818661243a565b905081810360608301526129bc818561243a565b905081810360808301526129d08184612908565b90509695505050505050565b600080fd5b600067ffffffffffffffff8211156129fc576129fb6120cb565b5b612a05826120ba565b9050602081019050919050565b82818337600083830152505050565b6000612a34612a2f846129e1565b61212b565b905082815260208101848484011115612a5057612a4f6129dc565b5b612a5b848285612a12565b509392505050565b600082601f830112612a7857612a776120b5565b5b8135612a88848260208601612a21565b91505092915050565b600067ffffffffffffffff821115612aac57612aab6120cb565b5b602082029050602081019050919050565b6000612ad0612acb84612a91565b61212b565b90508083825260208201905060208402830185811115612af357612af2612172565b5b835b81811015612b3a57803567ffffffffffffffff811115612b1857612b176120b5565b5b808601612b258982612a63565b85526020850194505050602081019050612af5565b5050509392505050565b600082601f830112612b5957612b586120b5565b5b8135612b69848260208601612abd565b91505092915050565b60008060008060008060c08789031215612b8f57612b8e611e8d565b5b6000612b9d89828a01611eb8565b965050602087013567ffffffffffffffff811115612bbe57612bbd611e92565b5b612bca89828a01612a63565b9550506040612bdb89828a01611eb8565b9450506060612bec89828a01611eb8565b9350506080612bfd89828a01611eb8565b92505060a087013567ffffffffffffffff811115612c1e57612c1d611e92565b5b612c2a89828a01612b44565b9150509295509295509295565b60006040820190508181036000830152612c5181856122c3565b9050612c606020830184611f3a565b9392505050565b60008060408385031215612c7e57612c7d611e8d565b5b6000612c8c85828601611eb8565b925050602083013567ffffffffffffffff811115612cad57612cac611e92565b5b612cb985828601612a63565b9150509250929050565b7f566f746520646f6573206e6f7420657869737400000000000000000000000000600082015250565b6000612cf9601383612288565b9150612d0482612cc3565b602082019050919050565b60006020820190508181036000830152612d2881612cec565b9050919050565b7f4e487b7100000000000000000000000000000000000000000000000000000000600052601160045260246000fd5b6000612d6982611e97565b9150612d7483611e97565b9250828203905081811115612d8c57612d8b612d2f565b5b92915050565b7f4e487b7100000000000000000000000000000000000000000000000000000000600052603260045260246000fd5b7f566f746572206973206e6f74207265676973746572656420666f72207468697360008201527f20766f74652e0000000000000000000000000000000000000000000000000000602082015250565b6000612e1d602683612288565b9150612e2882612dc1565b604082019050919050565b60006020820190508181036000830152612e4c81612e10565b9050919050565b7f566f7465722068617320616c726561647920766f7465642e0000000000000000600082015250565b6000612e89601883612288565b9150612e9482612e53565b602082019050919050565b60006020820190508181036000830152612eb881612e7c565b9050919050565b6000612eca82611e97565b9150612ed583611e97565b9250828201905080821115612eed57612eec612d2f565b5b92915050565b7f566f74696e67206973206e6f742063757272656e746c79206163746976652e00600082015250565b6000612f29601f83612288565b9150612f3482612ef3565b602082019050919050565b60006020820190508181036000830152612f5881612f1c565b9050919050565b7f566f746572206973206e6f742070617274206f66207468652067726f7570206660008201527f6f72207468697320766f74652e00000000000000000000000000000000000000602082015250565b6000612fbb602d83612288565b9150612fc682612f5f565b604082019050919050565b60006020820190508181036000830152612fea81612fae565b9050919050565b6000612ffc82611e97565b91507fffffffffffffffffffffffffffffffffffffffffffffffffffffffffffffffff820361302e5761302d612d2f565b5b600182019050919050565b7f4f6e6c79207468652041646d696e6973747261746f7220616c6c6f776564206d60008201527f616b65207468697320616374696f6e0000000000000000000000000000000000602082015250565b6000613095602f83612288565b91506130a082613039565b604082019050919050565b600060208201905081810360008301526130c481613088565b9050919050565b7f566f74696e672074696d652068617320656e6465642e00000000000000000000600082015250565b6000613101601683612288565b915061310c826130cb565b602082019050919050565b60006020820190508181036000830152613130816130f4565b9050919050565b7f4e487b7100000000000000000000000000000000000000000000000000000000600052602260045260246000fd5b6000600282049050600182168061317e57607f821691505b60208210810361319157613190613137565b5b50919050565b60008190508160005260206000209050919050565b60006020601f8301049050919050565b600082821b905092915050565b6000600883026131f97fffffffffffffffffffffffffffffffffffffffffffffffffffffffffffffffff826131bc565b61320386836131bc565b95508019841693508086168417925050509392505050565b6000819050919050565b600061324061323b61323684611e97565b61321b565b611e97565b9050919050565b6000819050919050565b61325a83613225565b61326e61326682613247565b8484546131c9565b825550505050565b600090565b613283613276565b61328e818484613251565b505050565b5b818110156132b2576132a760008261327b565b600181019050613294565b5050565b601f8211156132f7576132c881613197565b6132d1846131ac565b810160208510156132e0578190505b6132f46132ec856131ac565b830182613293565b50505b505050565b600082821c905092915050565b600061331a600019846008026132fc565b1980831691505092915050565b60006133338383613309565b9150826002028217905092915050565b61334c8261227d565b67ffffffffffffffff811115613365576133646120cb565b5b61336f8254613166565b61337a8282856132b6565b600060209050601f8311600181146133ad576000841561339b578287015190505b6133a58582613327565b86555061340d565b601f1984166133bb86613197565b60005b828110156133e3578489015182556001820191506020850194506020810190506133be565b8683101561340057848901516133fc601f891682613309565b8355505b6001600288020188555050505b50505050505056fea26469706673582212203b530109ba57abf88a83729603a9dd96575e1cc6d321268788c0f93e9521c6e264736f6c63430008180033","opcodes":"PUSH1 0x80 PUSH1 0x40 MSTORE CALLVALUE DUP1 ISZERO PUSH2 0x10 JUMPI PUSH1 0x0 DUP1 REVERT JUMPDEST POP CALLER PUSH1 0x0 DUP1 PUSH2 0x100 EXP DUP2 SLOAD DUP2 PUSH20 0xFFFFFFFFFFFFFFFFFFFFFFFFFFFFFFFFFFFFFFFF MUL NOT AND SWAP1 DUP4 PUSH20 0xFFFFFFFFFFFFFFFFFFFFFFFFFFFFFFFFFFFFFFFF AND MUL OR SWAP1 SSTORE POP PUSH2 0x344B DUP1 PUSH2 0x60 PUSH1 0x0 CODECOPY PUSH1 0x0 RETURN INVALID PUSH1 0x80 PUSH1 0x40 MSTORE CALLVALUE DUP1 ISZERO PUSH2 0x10 JUMPI PUSH1 0x0 DUP1 REVERT JUMPDEST POP PUSH1 0x4 CALLDATASIZE LT PUSH2 0x100 JUMPI PUSH1 0x0 CALLDATALOAD PUSH1 0xE0 SHR DUP1 PUSH4 0x5DF81330 GT PUSH2 0x97 JUMPI DUP1 PUSH4 0xC6E6A82B GT PUSH2 0x66 JUMPI DUP1 PUSH4 0xC6E6A82B EQ PUSH2 0x2F9 JUMPI DUP1 PUSH4 0xE1190243 EQ PUSH2 0x315 JUMPI DUP1 PUSH4 0xEA57D5D4 EQ PUSH2 0x346 JUMPI DUP1 PUSH4 0xF851A440 EQ PUSH2 0x362 JUMPI PUSH2 0x100 JUMP JUMPDEST DUP1 PUSH4 0x5DF81330 EQ PUSH2 0x24E JUMPI DUP1 PUSH4 0x86A66DC3 EQ PUSH2 0x284 JUMPI DUP1 PUSH4 0x8EF42C55 EQ PUSH2 0x2A7 JUMPI DUP1 PUSH4 0xAB2F9631 EQ PUSH2 0x2DB JUMPI PUSH2 0x100 JUMP JUMPDEST DUP1 PUSH4 0x517A6257 GT PUSH2 0xD3 JUMPI DUP1 PUSH4 0x517A6257 EQ PUSH2 0x19D JUMPI DUP1 PUSH4 0x57267754 EQ PUSH2 0x1CD JUMPI DUP1 PUSH4 0x5A3D4A3C EQ PUSH2 0x1FD JUMPI DUP1 PUSH4 0x5A55C1F0 EQ PUSH2 0x219 JUMPI PUSH2 0x100 JUMP JUMPDEST DUP1 PUSH4 0x2C0A3F89 EQ PUSH2 0x105 JUMPI DUP1 PUSH4 0x2CE35E11 EQ PUSH2 0x121 JUMPI DUP1 PUSH4 0x43859632 EQ PUSH2 0x151 JUMPI DUP1 PUSH4 0x485660A1 EQ PUSH2 0x181 JUMPI JUMPDEST PUSH1 0x0 DUP1 REVERT JUMPDEST PUSH2 0x11F PUSH1 0x4 DUP1 CALLDATASIZE SUB DUP2 ADD SWAP1 PUSH2 0x11A SWAP2 SWAP1 PUSH2 0x1ECD JUMP JUMPDEST PUSH2 0x380 JUMP JUMPDEST STOP JUMPDEST PUSH2 0x13B PUSH1 0x4 DUP1 CALLDATASIZE SUB DUP2 ADD SWAP1 PUSH2 0x136 SWAP2 SWAP1 PUSH2 0x1F0D JUMP JUMPDEST PUSH2 0x63F JUMP JUMPDEST PUSH1 0x40 MLOAD PUSH2 0x148 SWAP2 SWAP1 PUSH2 0x1F49 JUMP JUMPDEST PUSH1 0x40 MLOAD DUP1 SWAP2 SUB SWAP1 RETURN JUMPDEST PUSH2 0x16B PUSH1 0x4 DUP1 CALLDATASIZE SUB DUP2 ADD SWAP1 PUSH2 0x166 SWAP2 SWAP1 PUSH2 0x1FC2 JUMP JUMPDEST PUSH2 0x6C8 JUMP JUMPDEST PUSH1 0x40 MLOAD PUSH2 0x178 SWAP2 SWAP1 PUSH2 0x201D JUMP JUMPDEST PUSH1 0x40 MLOAD DUP1 SWAP2 SUB SWAP1 RETURN JUMPDEST PUSH2 0x19B PUSH1 0x4 DUP1 CALLDATASIZE SUB DUP2 ADD SWAP1 PUSH2 0x196 SWAP2 SWAP1 PUSH2 0x2038 JUMP JUMPDEST PUSH2 0x78B JUMP JUMPDEST STOP JUMPDEST PUSH2 0x1B7 PUSH1 0x4 DUP1 CALLDATASIZE SUB DUP2 ADD SWAP1 PUSH2 0x1B2 SWAP2 SWAP1 PUSH2 0x1F0D JUMP JUMPDEST PUSH2 0xA95 JUMP JUMPDEST PUSH1 0x40 MLOAD PUSH2 0x1C4 SWAP2 SWAP1 PUSH2 0x1F49 JUMP JUMPDEST PUSH1 0x40 MLOAD DUP1 SWAP2 SUB SWAP1 RETURN JUMPDEST PUSH2 0x1E7 PUSH1 0x4 DUP1 CALLDATASIZE SUB DUP2 ADD SWAP1 PUSH2 0x1E2 SWAP2 SWAP1 PUSH2 0x1F0D JUMP JUMPDEST PUSH2 0xAB5 JUMP JUMPDEST PUSH1 0x40 MLOAD PUSH2 0x1F4 SWAP2 SWAP1 PUSH2 0x209A JUMP JUMPDEST PUSH1 0x40 MLOAD DUP1 SWAP2 SUB SWAP1 RETURN JUMPDEST PUSH2 0x217 PUSH1 0x4 DUP1 CALLDATASIZE SUB DUP2 ADD SWAP1 PUSH2 0x212 SWAP2 SWAP1 PUSH2 0x220E JUMP JUMPDEST PUSH2 0xAE8 JUMP JUMPDEST STOP JUMPDEST PUSH2 0x233 PUSH1 0x4 DUP1 CALLDATASIZE SUB DUP2 ADD SWAP1 PUSH2 0x22E SWAP2 SWAP1 PUSH2 0x1F0D JUMP JUMPDEST PUSH2 0xE53 JUMP JUMPDEST PUSH1 0x40 MLOAD PUSH2 0x245 SWAP7 SWAP6 SWAP5 SWAP4 SWAP3 SWAP2 SWAP1 PUSH2 0x22FC JUMP JUMPDEST PUSH1 0x40 MLOAD DUP1 SWAP2 SUB SWAP1 RETURN JUMPDEST PUSH2 0x268 PUSH1 0x4 DUP1 CALLDATASIZE SUB DUP2 ADD SWAP1 PUSH2 0x263 SWAP2 SWAP1 PUSH2 0x1F0D JUMP JUMPDEST PUSH2 0xF3F JUMP JUMPDEST PUSH1 0x40 MLOAD PUSH2 0x27B SWAP8 SWAP7 SWAP6 SWAP5 SWAP4 SWAP3 SWAP2 SWAP1 PUSH2 0x2364 JUMP JUMPDEST PUSH1 0x40 MLOAD DUP1 SWAP2 SUB SWAP1 RETURN JUMPDEST PUSH2 0x28C PUSH2 0x1016 JUMP JUMPDEST PUSH1 0x40 MLOAD PUSH2 0x29E SWAP7 SWAP6 SWAP5 SWAP4 SWAP3 SWAP2 SWAP1 PUSH2 0x281D JUMP JUMPDEST PUSH1 0x40 MLOAD DUP1 SWAP2 SUB SWAP1 RETURN JUMPDEST PUSH2 0x2C1 PUSH1 0x4 DUP1 CALLDATASIZE SUB DUP2 ADD SWAP1 PUSH2 0x2BC SWAP2 SWAP1 PUSH2 0x1F0D JUMP JUMPDEST PUSH2 0x16EB JUMP JUMPDEST PUSH1 0x40 MLOAD PUSH2 0x2D2 SWAP6 SWAP5 SWAP4 SWAP3 SWAP2 SWAP1 PUSH2 0x2966 JUMP JUMPDEST PUSH1 0x40 MLOAD DUP1 SWAP2 SUB SWAP1 RETURN JUMPDEST PUSH2 0x2E3 PUSH2 0x1AC4 JUMP JUMPDEST PUSH1 0x40 MLOAD PUSH2 0x2F0 SWAP2 SWAP1 PUSH2 0x1F49 JUMP JUMPDEST PUSH1 0x40 MLOAD DUP1 SWAP2 SUB SWAP1 RETURN JUMPDEST PUSH2 0x313 PUSH1 0x4 DUP1 CALLDATASIZE SUB DUP2 ADD SWAP1 PUSH2 0x30E SWAP2 SWAP1 PUSH2 0x2B72 JUMP JUMPDEST PUSH2 0x1ACA JUMP JUMPDEST STOP JUMPDEST PUSH2 0x32F PUSH1 0x4 DUP1 CALLDATASIZE SUB DUP2 ADD SWAP1 PUSH2 0x32A SWAP2 SWAP1 PUSH2 0x1ECD JUMP JUMPDEST PUSH2 0x1C81 JUMP JUMPDEST PUSH1 0x40 MLOAD PUSH2 0x33D SWAP3 SWAP2 SWAP1 PUSH2 0x2C37 JUMP JUMPDEST PUSH1 0x40 MLOAD DUP1 SWAP2 SUB SWAP1 RETURN JUMPDEST PUSH2 0x360 PUSH1 0x4 DUP1 CALLDATASIZE SUB DUP2 ADD SWAP1 PUSH2 0x35B SWAP2 SWAP1 PUSH2 0x2C67 JUMP JUMPDEST PUSH2 0x1D5F JUMP JUMPDEST STOP JUMPDEST PUSH2 0x36A PUSH2 0x1E5F JUMP JUMPDEST PUSH1 0x40 MLOAD PUSH2 0x377 SWAP2 SWAP1 PUSH2 0x209A JUMP JUMPDEST PUSH1 0x40 MLOAD DUP1 SWAP2 SUB SWAP1 RETURN JUMPDEST PUSH1 0x0 PUSH1 0x2 PUSH1 0x0 DUP5 DUP2 MSTORE PUSH1 0x20 ADD SWAP1 DUP2 MSTORE PUSH1 0x20 ADD PUSH1 0x0 KECCAK256 PUSH1 0x1 ADD SLOAD SUB PUSH2 0x3D9 JUMPI PUSH1 0x40 MLOAD PUSH32 0x8C379A000000000000000000000000000000000000000000000000000000000 DUP2 MSTORE PUSH1 0x4 ADD PUSH2 0x3D0 SWAP1 PUSH2 0x2D0F JUMP JUMPDEST PUSH1 0x40 MLOAD DUP1 SWAP2 SUB SWAP1 REVERT JUMPDEST PUSH1 0x0 PUSH1 0x2 PUSH1 0x0 DUP5 DUP2 MSTORE PUSH1 0x20 ADD SWAP1 DUP2 MSTORE PUSH1 0x20 ADD PUSH1 0x0 KECCAK256 SWAP1 POP PUSH1 0x0 DUP2 PUSH1 0x6 ADD PUSH1 0x0 CALLER PUSH20 0xFFFFFFFFFFFFFFFFFFFFFFFFFFFFFFFFFFFFFFFF AND PUSH20 0xFFFFFFFFFFFFFFFFFFFFFFFFFFFFFFFFFFFFFFFF AND DUP2 MSTORE PUSH1 0x20 ADD SWAP1 DUP2 MSTORE PUSH1 0x20 ADD PUSH1 0x0 KECCAK256 SLOAD SWAP1 POP PUSH1 0x0 DUP3 PUSH1 0x5 ADD PUSH1 0x1 DUP4 PUSH2 0x449 SWAP2 SWAP1 PUSH2 0x2D5E JUMP JUMPDEST DUP2 SLOAD DUP2 LT PUSH2 0x45A JUMPI PUSH2 0x459 PUSH2 0x2D92 JUMP JUMPDEST JUMPDEST SWAP1 PUSH1 0x0 MSTORE PUSH1 0x20 PUSH1 0x0 KECCAK256 SWAP1 PUSH1 0x3 MUL ADD SWAP1 POP DUP1 PUSH1 0x0 ADD PUSH1 0x14 SWAP1 SLOAD SWAP1 PUSH2 0x100 EXP SWAP1 DIV PUSH1 0xFF AND PUSH2 0x4BB JUMPI PUSH1 0x40 MLOAD PUSH32 0x8C379A000000000000000000000000000000000000000000000000000000000 DUP2 MSTORE PUSH1 0x4 ADD PUSH2 0x4B2 SWAP1 PUSH2 0x2E33 JUMP JUMPDEST PUSH1 0x40 MLOAD DUP1 SWAP2 SUB SWAP1 REVERT JUMPDEST DUP1 PUSH1 0x0 ADD PUSH1 0x15 SWAP1 SLOAD SWAP1 PUSH2 0x100 EXP SWAP1 DIV PUSH1 0xFF AND ISZERO PUSH2 0x50D JUMPI PUSH1 0x40 MLOAD PUSH32 0x8C379A000000000000000000000000000000000000000000000000000000000 DUP2 MSTORE PUSH1 0x4 ADD PUSH2 0x504 SWAP1 PUSH2 0x2E9F JUMP JUMPDEST PUSH1 0x40 MLOAD DUP1 SWAP2 SUB SWAP1 REVERT JUMPDEST PUSH1 0x0 DUP4 PUSH1 0x3 ADD SLOAD DUP5 PUSH1 0x2 ADD SLOAD PUSH2 0x523 SWAP2 SWAP1 PUSH2 0x2EBF JUMP JUMPDEST SWAP1 POP DUP4 PUSH1 0x2 ADD SLOAD TIMESTAMP LT ISZERO DUP1 ISZERO PUSH2 0x539 JUMPI POP DUP1 TIMESTAMP GT ISZERO JUMPDEST PUSH2 0x578 JUMPI PUSH1 0x40 MLOAD PUSH32 0x8C379A000000000000000000000000000000000000000000000000000000000 DUP2 MSTORE PUSH1 0x4 ADD PUSH2 0x56F SWAP1 PUSH2 0x2F3F JUMP JUMPDEST PUSH1 0x40 MLOAD DUP1 SWAP2 SUB SWAP1 REVERT JUMPDEST DUP2 PUSH1 0x2 ADD SLOAD DUP5 PUSH1 0x7 ADD SLOAD EQ PUSH2 0x5C2 JUMPI PUSH1 0x40 MLOAD PUSH32 0x8C379A000000000000000000000000000000000000000000000000000000000 DUP2 MSTORE PUSH1 0x4 ADD PUSH2 0x5B9 SWAP1 PUSH2 0x2FD1 JUMP JUMPDEST PUSH1 0x40 MLOAD DUP1 SWAP2 SUB SWAP1 REVERT JUMPDEST PUSH1 0x1 DUP3 PUSH1 0x0 ADD PUSH1 0x15 PUSH2 0x100 EXP DUP2 SLOAD DUP2 PUSH1 0xFF MUL NOT AND SWAP1 DUP4 ISZERO ISZERO MUL OR SWAP1 SSTORE POP DUP5 DUP3 PUSH1 0x1 ADD DUP2 SWAP1 SSTORE POP PUSH1 0x2 PUSH1 0x0 DUP8 DUP2 MSTORE PUSH1 0x20 ADD SWAP1 DUP2 MSTORE PUSH1 0x20 ADD PUSH1 0x0 KECCAK256 PUSH1 0x4 ADD DUP6 DUP2 SLOAD DUP2 LT PUSH2 0x610 JUMPI PUSH2 0x60F PUSH2 0x2D92 JUMP JUMPDEST JUMPDEST SWAP1 PUSH1 0x0 MSTORE PUSH1 0x20 PUSH1 0x0 KECCAK256 SWAP1 PUSH1 0x2 MUL ADD PUSH1 0x1 ADD PUSH1 0x0 DUP2 SLOAD DUP1 SWAP3 SWAP2 SWAP1 PUSH2 0x632 SWAP1 PUSH2 0x2FF1 JUMP JUMPDEST SWAP2 SWAP1 POP SSTORE POP POP POP POP POP POP POP JUMP JUMPDEST PUSH1 0x0 DUP1 PUSH1 0x0 SWAP1 POP PUSH1 0x0 JUMPDEST PUSH1 0x2 PUSH1 0x0 DUP6 DUP2 MSTORE PUSH1 0x20 ADD SWAP1 DUP2 MSTORE PUSH1 0x20 ADD PUSH1 0x0 KECCAK256 PUSH1 0x4 ADD DUP1 SLOAD SWAP1 POP DUP2 LT ISZERO PUSH2 0x6BE JUMPI PUSH1 0x2 PUSH1 0x0 DUP6 DUP2 MSTORE PUSH1 0x20 ADD SWAP1 DUP2 MSTORE PUSH1 0x20 ADD PUSH1 0x0 KECCAK256 PUSH1 0x4 ADD DUP2 DUP2 SLOAD DUP2 LT PUSH2 0x692 JUMPI PUSH2 0x691 PUSH2 0x2D92 JUMP JUMPDEST JUMPDEST SWAP1 PUSH1 0x0 MSTORE PUSH1 0x20 PUSH1 0x0 KECCAK256 SWAP1 PUSH1 0x2 MUL ADD PUSH1 0x1 ADD SLOAD DUP3 PUSH2 0x6AF SWAP2 SWAP1 PUSH2 0x2EBF JUMP JUMPDEST SWAP2 POP DUP1 DUP1 PUSH1 0x1 ADD SWAP2 POP POP PUSH2 0x649 JUMP JUMPDEST POP DUP1 SWAP2 POP POP SWAP2 SWAP1 POP JUMP JUMPDEST PUSH1 0x0 DUP1 PUSH1 0x2 PUSH1 0x0 DUP6 DUP2 MSTORE PUSH1 0x20 ADD SWAP1 DUP2 MSTORE PUSH1 0x20 ADD PUSH1 0x0 KECCAK256 SWAP1 POP PUSH1 0x0 DUP2 PUSH1 0x6 ADD PUSH1 0x0 DUP6 PUSH20 0xFFFFFFFFFFFFFFFFFFFFFFFFFFFFFFFFFFFFFFFF AND PUSH20 0xFFFFFFFFFFFFFFFFFFFFFFFFFFFFFFFFFFFFFFFF AND DUP2 MSTORE PUSH1 0x20 ADD SWAP1 DUP2 MSTORE PUSH1 0x20 ADD PUSH1 0x0 KECCAK256 SLOAD SWAP1 POP PUSH1 0x0 DUP2 SUB PUSH2 0x739 JUMPI PUSH1 0x0 SWAP3 POP POP POP PUSH2 0x785 JUMP JUMPDEST PUSH1 0x0 DUP3 PUSH1 0x5 ADD PUSH1 0x1 DUP4 PUSH2 0x74C SWAP2 SWAP1 PUSH2 0x2D5E JUMP JUMPDEST DUP2 SLOAD DUP2 LT PUSH2 0x75D JUMPI PUSH2 0x75C PUSH2 0x2D92 JUMP JUMPDEST JUMPDEST SWAP1 PUSH1 0x0 MSTORE PUSH1 0x20 PUSH1 0x0 KECCAK256 SWAP1 PUSH1 0x3 MUL ADD SWAP1 POP DUP1 PUSH1 0x0 ADD PUSH1 0x15 SWAP1 SLOAD SWAP1 PUSH2 0x100 EXP SWAP1 DIV PUSH1 0xFF AND SWAP4 POP POP POP POP JUMPDEST SWAP3 SWAP2 POP POP JUMP JUMPDEST PUSH1 0x0 DUP1 SLOAD SWAP1 PUSH2 0x100 EXP SWAP1 DIV PUSH20 0xFFFFFFFFFFFFFFFFFFFFFFFFFFFFFFFFFFFFFFFF AND PUSH20 0xFFFFFFFFFFFFFFFFFFFFFFFFFFFFFFFFFFFFFFFF AND CALLER PUSH20 0xFFFFFFFFFFFFFFFFFFFFFFFFFFFFFFFFFFFFFFFF AND EQ PUSH2 0x819 JUMPI PUSH1 0x40 MLOAD PUSH32 0x8C379A000000000000000000000000000000000000000000000000000000000 DUP2 MSTORE PUSH1 0x4 ADD PUSH2 0x810 SWAP1 PUSH2 0x30AB JUMP JUMPDEST PUSH1 0x40 MLOAD DUP1 SWAP2 SUB SWAP1 REVERT JUMPDEST PUSH1 0x0 PUSH1 0x2 PUSH1 0x0 DUP6 DUP2 MSTORE PUSH1 0x20 ADD SWAP1 DUP2 MSTORE PUSH1 0x20 ADD PUSH1 0x0 KECCAK256 PUSH1 0x1 ADD SLOAD SUB PUSH2 0x872 JUMPI PUSH1 0x40 MLOAD PUSH32 0x8C379A000000000000000000000000000000000000000000000000000000000 DUP2 MSTORE PUSH1 0x4 ADD PUSH2 0x869 SWAP1 PUSH2 0x2D0F JUMP JUMPDEST PUSH1 0x40 MLOAD DUP1 SWAP2 SUB SWAP1 REVERT JUMPDEST PUSH1 0x0 PUSH1 0x2 PUSH1 0x0 DUP6 DUP2 MSTORE PUSH1 0x20 ADD SWAP1 DUP2 MSTORE PUSH1 0x20 ADD PUSH1 0x0 KECCAK256 SWAP1 POP PUSH1 0x0 DUP2 PUSH1 0x3 ADD SLOAD DUP3 PUSH1 0x2 ADD SLOAD PUSH2 0x89F SWAP2 SWAP1 PUSH2 0x2EBF JUMP JUMPDEST SWAP1 POP DUP1 TIMESTAMP LT PUSH2 0x8E3 JUMPI PUSH1 0x40 MLOAD PUSH32 0x8C379A000000000000000000000000000000000000000000000000000000000 DUP2 MSTORE PUSH1 0x4 ADD PUSH2 0x8DA SWAP1 PUSH2 0x3117 JUMP JUMPDEST PUSH1 0x40 MLOAD DUP1 SWAP2 SUB SWAP1 REVERT JUMPDEST PUSH1 0x0 DUP3 PUSH1 0x6 ADD PUSH1 0x0 DUP7 PUSH20 0xFFFFFFFFFFFFFFFFFFFFFFFFFFFFFFFFFFFFFFFF AND PUSH20 0xFFFFFFFFFFFFFFFFFFFFFFFFFFFFFFFFFFFFFFFF AND DUP2 MSTORE PUSH1 0x20 ADD SWAP1 DUP2 MSTORE PUSH1 0x20 ADD PUSH1 0x0 KECCAK256 SLOAD EQ PUSH2 0x933 JUMPI POP POP PUSH2 0xA90 JUMP JUMPDEST DUP2 PUSH1 0x5 ADD PUSH1 0x40 MLOAD DUP1 PUSH1 0xA0 ADD PUSH1 0x40 MSTORE DUP1 DUP7 PUSH20 0xFFFFFFFFFFFFFFFFFFFFFFFFFFFFFFFFFFFFFFFF AND DUP2 MSTORE PUSH1 0x20 ADD PUSH1 0x1 ISZERO ISZERO DUP2 MSTORE PUSH1 0x20 ADD PUSH1 0x0 ISZERO ISZERO DUP2 MSTORE PUSH1 0x20 ADD DUP8 DUP2 MSTORE PUSH1 0x20 ADD DUP6 DUP2 MSTORE POP SWAP1 DUP1 PUSH1 0x1 DUP2 SLOAD ADD DUP1 DUP3 SSTORE DUP1 SWAP2 POP POP PUSH1 0x1 SWAP1 SUB SWAP1 PUSH1 0x0 MSTORE PUSH1 0x20 PUSH1 0x0 KECCAK256 SWAP1 PUSH1 0x3 MUL ADD PUSH1 0x0 SWAP1 SWAP2 SWAP1 SWAP2 SWAP1 SWAP2 POP PUSH1 0x0 DUP3 ADD MLOAD DUP2 PUSH1 0x0 ADD PUSH1 0x0 PUSH2 0x100 EXP DUP2 SLOAD DUP2 PUSH20 0xFFFFFFFFFFFFFFFFFFFFFFFFFFFFFFFFFFFFFFFF MUL NOT AND SWAP1 DUP4 PUSH20 0xFFFFFFFFFFFFFFFFFFFFFFFFFFFFFFFFFFFFFFFF AND MUL OR SWAP1 SSTORE POP PUSH1 0x20 DUP3 ADD MLOAD DUP2 PUSH1 0x0 ADD PUSH1 0x14 PUSH2 0x100 EXP DUP2 SLOAD DUP2 PUSH1 0xFF MUL NOT AND SWAP1 DUP4 ISZERO ISZERO MUL OR SWAP1 SSTORE POP PUSH1 0x40 DUP3 ADD MLOAD DUP2 PUSH1 0x0 ADD PUSH1 0x15 PUSH2 0x100 EXP DUP2 SLOAD DUP2 PUSH1 0xFF MUL NOT AND SWAP1 DUP4 ISZERO ISZERO MUL OR SWAP1 SSTORE POP PUSH1 0x60 DUP3 ADD MLOAD DUP2 PUSH1 0x1 ADD SSTORE PUSH1 0x80 DUP3 ADD MLOAD DUP2 PUSH1 0x2 ADD SSTORE POP POP DUP2 PUSH1 0x5 ADD DUP1 SLOAD SWAP1 POP DUP3 PUSH1 0x6 ADD PUSH1 0x0 DUP7 PUSH20 0xFFFFFFFFFFFFFFFFFFFFFFFFFFFFFFFFFFFFFFFF AND PUSH20 0xFFFFFFFFFFFFFFFFFFFFFFFFFFFFFFFFFFFFFFFF AND DUP2 MSTORE PUSH1 0x20 ADD SWAP1 DUP2 MSTORE PUSH1 0x20 ADD PUSH1 0x0 KECCAK256 DUP2 SWAP1 SSTORE POP POP POP JUMPDEST POP POP POP JUMP JUMPDEST PUSH1 0x0 PUSH1 0x2 PUSH1 0x0 DUP4 DUP2 MSTORE PUSH1 0x20 ADD SWAP1 DUP2 MSTORE PUSH1 0x20 ADD PUSH1 0x0 KECCAK256 PUSH1 0x8 ADD SLOAD SWAP1 POP SWAP2 SWAP1 POP JUMP JUMPDEST PUSH1 0x3 PUSH1 0x20 MSTORE DUP1 PUSH1 0x0 MSTORE PUSH1 0x40 PUSH1 0x0 KECCAK256 PUSH1 0x0 SWAP2 POP SLOAD SWAP1 PUSH2 0x100 EXP SWAP1 DIV PUSH20 0xFFFFFFFFFFFFFFFFFFFFFFFFFFFFFFFFFFFFFFFF AND DUP2 JUMP JUMPDEST PUSH1 0x0 DUP1 SLOAD SWAP1 PUSH2 0x100 EXP SWAP1 DIV PUSH20 0xFFFFFFFFFFFFFFFFFFFFFFFFFFFFFFFFFFFFFFFF AND PUSH20 0xFFFFFFFFFFFFFFFFFFFFFFFFFFFFFFFFFFFFFFFF AND CALLER PUSH20 0xFFFFFFFFFFFFFFFFFFFFFFFFFFFFFFFFFFFFFFFF AND EQ PUSH2 0xB76 JUMPI PUSH1 0x40 MLOAD PUSH32 0x8C379A000000000000000000000000000000000000000000000000000000000 DUP2 MSTORE PUSH1 0x4 ADD PUSH2 0xB6D SWAP1 PUSH2 0x30AB JUMP JUMPDEST PUSH1 0x40 MLOAD DUP1 SWAP2 SUB SWAP1 REVERT JUMPDEST PUSH1 0x0 PUSH1 0x2 PUSH1 0x0 DUP6 DUP2 MSTORE PUSH1 0x20 ADD SWAP1 DUP2 MSTORE PUSH1 0x20 ADD PUSH1 0x0 KECCAK256 PUSH1 0x1 ADD SLOAD SUB PUSH2 0xBCF JUMPI PUSH1 0x40 MLOAD PUSH32 0x8C379A000000000000000000000000000000000000000000000000000000000 DUP2 MSTORE PUSH1 0x4 ADD PUSH2 0xBC6 SWAP1 PUSH2 0x2D0F JUMP JUMPDEST PUSH1 0x40 MLOAD DUP1 SWAP2 SUB SWAP1 REVERT JUMPDEST PUSH1 0x0 PUSH1 0x2 PUSH1 0x0 DUP6 DUP2 MSTORE PUSH1 0x20 ADD SWAP1 DUP2 MSTORE PUSH1 0x20 ADD PUSH1 0x0 KECCAK256 SWAP1 POP PUSH1 0x0 DUP2 PUSH1 0x3 ADD SLOAD DUP3 PUSH1 0x2 ADD SLOAD PUSH2 0xBFC SWAP2 SWAP1 PUSH2 0x2EBF JUMP JUMPDEST SWAP1 POP DUP1 TIMESTAMP LT PUSH2 0xC40 JUMPI PUSH1 0x40 MLOAD PUSH32 0x8C379A000000000000000000000000000000000000000000000000000000000 DUP2 MSTORE PUSH1 0x4 ADD PUSH2 0xC37 SWAP1 PUSH2 0x3117 JUMP JUMPDEST PUSH1 0x40 MLOAD DUP1 SWAP2 SUB SWAP1 REVERT JUMPDEST PUSH1 0x0 JUMPDEST DUP5 MLOAD DUP2 LT ISZERO PUSH2 0xE4B JUMPI PUSH1 0x0 DUP4 PUSH1 0x6 ADD PUSH1 0x0 DUP8 DUP5 DUP2 MLOAD DUP2 LT PUSH2 0xC67 JUMPI PUSH2 0xC66 PUSH2 0x2D92 JUMP JUMPDEST JUMPDEST PUSH1 0x20 MUL PUSH1 0x20 ADD ADD MLOAD PUSH20 0xFFFFFFFFFFFFFFFFFFFFFFFFFFFFFFFFFFFFFFFF AND PUSH20 0xFFFFFFFFFFFFFFFFFFFFFFFFFFFFFFFFFFFFFFFF AND DUP2 MSTORE PUSH1 0x20 ADD SWAP1 DUP2 MSTORE PUSH1 0x20 ADD PUSH1 0x0 KECCAK256 SLOAD SUB PUSH2 0xE3E JUMPI DUP3 PUSH1 0x5 ADD PUSH1 0x40 MLOAD DUP1 PUSH1 0xA0 ADD PUSH1 0x40 MSTORE DUP1 DUP8 DUP5 DUP2 MLOAD DUP2 LT PUSH2 0xCD1 JUMPI PUSH2 0xCD0 PUSH2 0x2D92 JUMP JUMPDEST JUMPDEST PUSH1 0x20 MUL PUSH1 0x20 ADD ADD MLOAD PUSH20 0xFFFFFFFFFFFFFFFFFFFFFFFFFFFFFFFFFFFFFFFF AND DUP2 MSTORE PUSH1 0x20 ADD PUSH1 0x1 ISZERO ISZERO DUP2 MSTORE PUSH1 0x20 ADD PUSH1 0x0 ISZERO ISZERO DUP2 MSTORE PUSH1 0x20 ADD DUP9 DUP2 MSTORE PUSH1 0x20 ADD DUP7 DUP2 MSTORE POP SWAP1 DUP1 PUSH1 0x1 DUP2 SLOAD ADD DUP1 DUP3 SSTORE DUP1 SWAP2 POP POP PUSH1 0x1 SWAP1 SUB SWAP1 PUSH1 0x0 MSTORE PUSH1 0x20 PUSH1 0x0 KECCAK256 SWAP1 PUSH1 0x3 MUL ADD PUSH1 0x0 SWAP1 SWAP2 SWAP1 SWAP2 SWAP1 SWAP2 POP PUSH1 0x0 DUP3 ADD MLOAD DUP2 PUSH1 0x0 ADD PUSH1 0x0 PUSH2 0x100 EXP DUP2 SLOAD DUP2 PUSH20 0xFFFFFFFFFFFFFFFFFFFFFFFFFFFFFFFFFFFFFFFF MUL NOT AND SWAP1 DUP4 PUSH20 0xFFFFFFFFFFFFFFFFFFFFFFFFFFFFFFFFFFFFFFFF AND MUL OR SWAP1 SSTORE POP PUSH1 0x20 DUP3 ADD MLOAD DUP2 PUSH1 0x0 ADD PUSH1 0x14 PUSH2 0x100 EXP DUP2 SLOAD DUP2 PUSH1 0xFF MUL NOT AND SWAP1 DUP4 ISZERO ISZERO MUL OR SWAP1 SSTORE POP PUSH1 0x40 DUP3 ADD MLOAD DUP2 PUSH1 0x0 ADD PUSH1 0x15 PUSH2 0x100 EXP DUP2 SLOAD DUP2 PUSH1 0xFF MUL NOT AND SWAP1 DUP4 ISZERO ISZERO MUL OR SWAP1 SSTORE POP PUSH1 0x60 DUP3 ADD MLOAD DUP2 PUSH1 0x1 ADD SSTORE PUSH1 0x80 DUP3 ADD MLOAD DUP2 PUSH1 0x2 ADD SSTORE POP POP DUP3 PUSH1 0x5 ADD DUP1 SLOAD SWAP1 POP DUP4 PUSH1 0x6 ADD PUSH1 0x0 DUP8 DUP5 DUP2 MLOAD DUP2 LT PUSH2 0xDF7 JUMPI PUSH2 0xDF6 PUSH2 0x2D92 JUMP JUMPDEST JUMPDEST PUSH1 0x20 MUL PUSH1 0x20 ADD ADD MLOAD PUSH20 0xFFFFFFFFFFFFFFFFFFFFFFFFFFFFFFFFFFFFFFFF AND PUSH20 0xFFFFFFFFFFFFFFFFFFFFFFFFFFFFFFFFFFFFFFFF AND DUP2 MSTORE PUSH1 0x20 ADD SWAP1 DUP2 MSTORE PUSH1 0x20 ADD PUSH1 0x0 KECCAK256 DUP2 SWAP1 SSTORE POP JUMPDEST DUP1 DUP1 PUSH1 0x1 ADD SWAP2 POP POP PUSH2 0xC43 JUMP JUMPDEST POP POP POP POP POP POP JUMP JUMPDEST PUSH1 0x60 PUSH1 0x0 DUP1 PUSH1 0x0 DUP1 PUSH1 0x0 DUP1 PUSH1 0x2 PUSH1 0x0 DUP10 DUP2 MSTORE PUSH1 0x20 ADD SWAP1 DUP2 MSTORE PUSH1 0x20 ADD PUSH1 0x0 KECCAK256 SWAP1 POP DUP1 PUSH1 0x0 ADD DUP2 PUSH1 0x1 ADD SLOAD DUP3 PUSH1 0x2 ADD SLOAD DUP4 PUSH1 0x3 ADD SLOAD DUP5 PUSH1 0x8 ADD SLOAD DUP6 PUSH1 0x9 ADD PUSH1 0x0 SWAP1 SLOAD SWAP1 PUSH2 0x100 EXP SWAP1 DIV PUSH1 0xFF AND DUP6 DUP1 SLOAD PUSH2 0xEA9 SWAP1 PUSH2 0x3166 JUMP JUMPDEST DUP1 PUSH1 0x1F ADD PUSH1 0x20 DUP1 SWAP2 DIV MUL PUSH1 0x20 ADD PUSH1 0x40 MLOAD SWAP1 DUP2 ADD PUSH1 0x40 MSTORE DUP1 SWAP3 SWAP2 SWAP1 DUP2 DUP2 MSTORE PUSH1 0x20 ADD DUP3 DUP1 SLOAD PUSH2 0xED5 SWAP1 PUSH2 0x3166 JUMP JUMPDEST DUP1 ISZERO PUSH2 0xF22 JUMPI DUP1 PUSH1 0x1F LT PUSH2 0xEF7 JUMPI PUSH2 0x100 DUP1 DUP4 SLOAD DIV MUL DUP4 MSTORE SWAP2 PUSH1 0x20 ADD SWAP2 PUSH2 0xF22 JUMP JUMPDEST DUP3 ADD SWAP2 SWAP1 PUSH1 0x0 MSTORE PUSH1 0x20 PUSH1 0x0 KECCAK256 SWAP1 JUMPDEST DUP2 SLOAD DUP2 MSTORE SWAP1 PUSH1 0x1 ADD SWAP1 PUSH1 0x20 ADD DUP1 DUP4 GT PUSH2 0xF05 JUMPI DUP3 SWAP1 SUB PUSH1 0x1F AND DUP3 ADD SWAP2 JUMPDEST POP POP POP POP POP SWAP6 POP SWAP7 POP SWAP7 POP SWAP7 POP SWAP7 POP SWAP7 POP SWAP7 POP POP SWAP2 SWAP4 SWAP6 POP SWAP2 SWAP4 SWAP6 JUMP JUMPDEST PUSH1 0x2 PUSH1 0x20 MSTORE DUP1 PUSH1 0x0 MSTORE PUSH1 0x40 PUSH1 0x0 KECCAK256 PUSH1 0x0 SWAP2 POP SWAP1 POP DUP1 PUSH1 0x0 ADD DUP1 SLOAD PUSH2 0xF62 SWAP1 PUSH2 0x3166 JUMP JUMPDEST DUP1 PUSH1 0x1F ADD PUSH1 0x20 DUP1 SWAP2 DIV MUL PUSH1 0x20 ADD PUSH1 0x40 MLOAD SWAP1 DUP2 ADD PUSH1 0x40 MSTORE DUP1 SWAP3 SWAP2 SWAP1 DUP2 DUP2 MSTORE PUSH1 0x20 ADD DUP3 DUP1 SLOAD PUSH2 0xF8E SWAP1 PUSH2 0x3166 JUMP JUMPDEST DUP1 ISZERO PUSH2 0xFDB JUMPI DUP1 PUSH1 0x1F LT PUSH2 0xFB0 JUMPI PUSH2 0x100 DUP1 DUP4 SLOAD DIV MUL DUP4 MSTORE SWAP2 PUSH1 0x20 ADD SWAP2 PUSH2 0xFDB JUMP JUMPDEST DUP3 ADD SWAP2 SWAP1 PUSH1 0x0 MSTORE PUSH1 0x20 PUSH1 0x0 KECCAK256 SWAP1 JUMPDEST DUP2 SLOAD DUP2 MSTORE SWAP1 PUSH1 0x1 ADD SWAP1 PUSH1 0x20 ADD DUP1 DUP4 GT PUSH2 0xFBE JUMPI DUP3 SWAP1 SUB PUSH1 0x1F AND DUP3 ADD SWAP2 JUMPDEST POP POP POP POP POP SWAP1 DUP1 PUSH1 0x1 ADD SLOAD SWAP1 DUP1 PUSH1 0x2 ADD SLOAD SWAP1 DUP1 PUSH1 0x3 ADD SLOAD SWAP1 DUP1 PUSH1 0x7 ADD SLOAD SWAP1 DUP1 PUSH1 0x8 ADD SLOAD SWAP1 DUP1 PUSH1 0x9 ADD PUSH1 0x0 SWAP1 SLOAD SWAP1 PUSH2 0x100 EXP SWAP1 DIV PUSH1 0xFF AND SWAP1 POP DUP8 JUMP JUMPDEST PUSH1 0x60 DUP1 PUSH1 0x60 DUP1 PUSH1 0x60 DUP1 PUSH1 0x0 DUP1 PUSH1 0x0 PUSH1 0x1 SWAP1 POP JUMPDEST PUSH1 0x1 SLOAD DUP2 GT PUSH2 0x1090 JUMPI PUSH1 0x2 PUSH1 0x0 DUP3 DUP2 MSTORE PUSH1 0x20 ADD SWAP1 DUP2 MSTORE PUSH1 0x20 ADD PUSH1 0x0 KECCAK256 PUSH1 0x9 ADD PUSH1 0x0 SWAP1 SLOAD SWAP1 PUSH2 0x100 EXP SWAP1 DIV PUSH1 0xFF AND ISZERO PUSH2 0x106E JUMPI DUP3 DUP1 PUSH2 0x1066 SWAP1 PUSH2 0x2FF1 JUMP JUMPDEST SWAP4 POP POP PUSH2 0x107D JUMP JUMPDEST DUP2 DUP1 PUSH2 0x1079 SWAP1 PUSH2 0x2FF1 JUMP JUMPDEST SWAP3 POP POP JUMPDEST DUP1 DUP1 PUSH2 0x1088 SWAP1 PUSH2 0x2FF1 JUMP JUMPDEST SWAP2 POP POP PUSH2 0x1029 JUMP JUMPDEST POP DUP2 PUSH8 0xFFFFFFFFFFFFFFFF DUP2 GT ISZERO PUSH2 0x10AB JUMPI PUSH2 0x10AA PUSH2 0x20CB JUMP JUMPDEST JUMPDEST PUSH1 0x40 MLOAD SWAP1 DUP1 DUP3 MSTORE DUP1 PUSH1 0x20 MUL PUSH1 0x20 ADD DUP3 ADD PUSH1 0x40 MSTORE DUP1 ISZERO PUSH2 0x10D9 JUMPI DUP2 PUSH1 0x20 ADD PUSH1 0x20 DUP3 MUL DUP1 CALLDATASIZE DUP4 CALLDATACOPY DUP1 DUP3 ADD SWAP2 POP POP SWAP1 POP JUMPDEST POP SWAP8 POP DUP2 PUSH8 0xFFFFFFFFFFFFFFFF DUP2 GT ISZERO PUSH2 0x10F6 JUMPI PUSH2 0x10F5 PUSH2 0x20CB JUMP JUMPDEST JUMPDEST PUSH1 0x40 MLOAD SWAP1 DUP1 DUP3 MSTORE DUP1 PUSH1 0x20 MUL PUSH1 0x20 ADD DUP3 ADD PUSH1 0x40 MSTORE DUP1 ISZERO PUSH2 0x1124 JUMPI DUP2 PUSH1 0x20 ADD PUSH1 0x20 DUP3 MUL DUP1 CALLDATASIZE DUP4 CALLDATACOPY DUP1 DUP3 ADD SWAP2 POP POP SWAP1 POP JUMPDEST POP SWAP7 POP DUP1 PUSH8 0xFFFFFFFFFFFFFFFF DUP2 GT ISZERO PUSH2 0x1141 JUMPI PUSH2 0x1140 PUSH2 0x20CB JUMP JUMPDEST JUMPDEST PUSH1 0x40 MLOAD SWAP1 DUP1 DUP3 MSTORE DUP1 PUSH1 0x20 MUL PUSH1 0x20 ADD DUP3 ADD PUSH1 0x40 MSTORE DUP1 ISZERO PUSH2 0x116F JUMPI DUP2 PUSH1 0x20 ADD PUSH1 0x20 DUP3 MUL DUP1 CALLDATASIZE DUP4 CALLDATACOPY DUP1 DUP3 ADD SWAP2 POP POP SWAP1 POP JUMPDEST POP SWAP6 POP DUP1 PUSH8 0xFFFFFFFFFFFFFFFF DUP2 GT ISZERO PUSH2 0x118C JUMPI PUSH2 0x118B PUSH2 0x20CB JUMP JUMPDEST JUMPDEST PUSH1 0x40 MLOAD SWAP1 DUP1 DUP3 MSTORE DUP1 PUSH1 0x20 MUL PUSH1 0x20 ADD DUP3 ADD PUSH1 0x40 MSTORE DUP1 ISZERO PUSH2 0x11BF JUMPI DUP2 PUSH1 0x20 ADD JUMPDEST PUSH1 0x60 DUP2 MSTORE PUSH1 0x20 ADD SWAP1 PUSH1 0x1 SWAP1 SUB SWAP1 DUP2 PUSH2 0x11AA JUMPI SWAP1 POP JUMPDEST POP SWAP5 POP DUP1 PUSH8 0xFFFFFFFFFFFFFFFF DUP2 GT ISZERO PUSH2 0x11DC JUMPI PUSH2 0x11DB PUSH2 0x20CB JUMP JUMPDEST JUMPDEST PUSH1 0x40 MLOAD SWAP1 DUP1 DUP3 MSTORE DUP1 PUSH1 0x20 MUL PUSH1 0x20 ADD DUP3 ADD PUSH1 0x40 MSTORE DUP1 ISZERO PUSH2 0x120F JUMPI DUP2 PUSH1 0x20 ADD JUMPDEST PUSH1 0x60 DUP2 MSTORE PUSH1 0x20 ADD SWAP1 PUSH1 0x1 SWAP1 SUB SWAP1 DUP2 PUSH2 0x11FA JUMPI SWAP1 POP JUMPDEST POP SWAP4 POP DUP1 PUSH8 0xFFFFFFFFFFFFFFFF DUP2 GT ISZERO PUSH2 0x122C JUMPI PUSH2 0x122B PUSH2 0x20CB JUMP JUMPDEST JUMPDEST PUSH1 0x40 MLOAD SWAP1 DUP1 DUP3 MSTORE DUP1 PUSH1 0x20 MUL PUSH1 0x20 ADD DUP3 ADD PUSH1 0x40 MSTORE DUP1 ISZERO PUSH2 0x125F JUMPI DUP2 PUSH1 0x20 ADD JUMPDEST PUSH1 0x60 DUP2 MSTORE PUSH1 0x20 ADD SWAP1 PUSH1 0x1 SWAP1 SUB SWAP1 DUP2 PUSH2 0x124A JUMPI SWAP1 POP JUMPDEST POP SWAP3 POP PUSH1 0x0 DUP1 PUSH1 0x0 PUSH1 0x1 SWAP1 POP JUMPDEST PUSH1 0x1 SLOAD DUP2 GT PUSH2 0x16DE JUMPI PUSH1 0x2 PUSH1 0x0 DUP3 DUP2 MSTORE PUSH1 0x20 ADD SWAP1 DUP2 MSTORE PUSH1 0x20 ADD PUSH1 0x0 KECCAK256 PUSH1 0x9 ADD PUSH1 0x0 SWAP1 SLOAD SWAP1 PUSH2 0x100 EXP SWAP1 DIV PUSH1 0xFF AND ISZERO PUSH2 0x1325 JUMPI PUSH1 0x2 PUSH1 0x0 DUP3 DUP2 MSTORE PUSH1 0x20 ADD SWAP1 DUP2 MSTORE PUSH1 0x20 ADD PUSH1 0x0 KECCAK256 PUSH1 0x1 ADD SLOAD DUP12 DUP5 DUP2 MLOAD DUP2 LT PUSH2 0x12C8 JUMPI PUSH2 0x12C7 PUSH2 0x2D92 JUMP JUMPDEST JUMPDEST PUSH1 0x20 MUL PUSH1 0x20 ADD ADD DUP2 DUP2 MSTORE POP POP PUSH2 0x12F3 PUSH1 0x2 PUSH1 0x0 DUP4 DUP2 MSTORE PUSH1 0x20 ADD SWAP1 DUP2 MSTORE PUSH1 0x20 ADD PUSH1 0x0 KECCAK256 PUSH1 0x1 ADD SLOAD PUSH2 0x63F JUMP JUMPDEST DUP11 DUP5 DUP2 MLOAD DUP2 LT PUSH2 0x1306 JUMPI PUSH2 0x1305 PUSH2 0x2D92 JUMP JUMPDEST JUMPDEST PUSH1 0x20 MUL PUSH1 0x20 ADD ADD DUP2 DUP2 MSTORE POP POP DUP3 DUP1 PUSH2 0x131D SWAP1 PUSH2 0x2FF1 JUMP JUMPDEST SWAP4 POP POP PUSH2 0x16CB JUMP JUMPDEST PUSH1 0x2 PUSH1 0x0 DUP3 DUP2 MSTORE PUSH1 0x20 ADD SWAP1 DUP2 MSTORE PUSH1 0x20 ADD PUSH1 0x0 KECCAK256 PUSH1 0x1 ADD SLOAD DUP10 DUP4 DUP2 MLOAD DUP2 LT PUSH2 0x134F JUMPI PUSH2 0x134E PUSH2 0x2D92 JUMP JUMPDEST JUMPDEST PUSH1 0x20 MUL PUSH1 0x20 ADD ADD DUP2 DUP2 MSTORE POP POP PUSH1 0x2 PUSH1 0x0 DUP3 DUP2 MSTORE PUSH1 0x20 ADD SWAP1 DUP2 MSTORE PUSH1 0x20 ADD PUSH1 0x0 KECCAK256 PUSH1 0x0 ADD DUP1 SLOAD PUSH2 0x137C SWAP1 PUSH2 0x3166 JUMP JUMPDEST DUP1 PUSH1 0x1F ADD PUSH1 0x20 DUP1 SWAP2 DIV MUL PUSH1 0x20 ADD PUSH1 0x40 MLOAD SWAP1 DUP2 ADD PUSH1 0x40 MSTORE DUP1 SWAP3 SWAP2 SWAP1 DUP2 DUP2 MSTORE PUSH1 0x20 ADD DUP3 DUP1 SLOAD PUSH2 0x13A8 SWAP1 PUSH2 0x3166 JUMP JUMPDEST DUP1 ISZERO PUSH2 0x13F5 JUMPI DUP1 PUSH1 0x1F LT PUSH2 0x13CA JUMPI PUSH2 0x100 DUP1 DUP4 SLOAD DIV MUL DUP4 MSTORE SWAP2 PUSH1 0x20 ADD SWAP2 PUSH2 0x13F5 JUMP JUMPDEST DUP3 ADD SWAP2 SWAP1 PUSH1 0x0 MSTORE PUSH1 0x20 PUSH1 0x0 KECCAK256 SWAP1 JUMPDEST DUP2 SLOAD DUP2 MSTORE SWAP1 PUSH1 0x1 ADD SWAP1 PUSH1 0x20 ADD DUP1 DUP4 GT PUSH2 0x13D8 JUMPI DUP3 SWAP1 SUB PUSH1 0x1F AND DUP3 ADD SWAP2 JUMPDEST POP POP POP POP POP DUP9 DUP4 DUP2 MLOAD DUP2 LT PUSH2 0x140D JUMPI PUSH2 0x140C PUSH2 0x2D92 JUMP JUMPDEST JUMPDEST PUSH1 0x20 MUL PUSH1 0x20 ADD ADD DUP2 SWAP1 MSTORE POP PUSH1 0x2 PUSH1 0x0 DUP3 DUP2 MSTORE PUSH1 0x20 ADD SWAP1 DUP2 MSTORE PUSH1 0x20 ADD PUSH1 0x0 KECCAK256 PUSH1 0x4 ADD DUP1 SLOAD SWAP1 POP PUSH8 0xFFFFFFFFFFFFFFFF DUP2 GT ISZERO PUSH2 0x144B JUMPI PUSH2 0x144A PUSH2 0x20CB JUMP JUMPDEST JUMPDEST PUSH1 0x40 MLOAD SWAP1 DUP1 DUP3 MSTORE DUP1 PUSH1 0x20 MUL PUSH1 0x20 ADD DUP3 ADD PUSH1 0x40 MSTORE DUP1 ISZERO PUSH2 0x147E JUMPI DUP2 PUSH1 0x20 ADD JUMPDEST PUSH1 0x60 DUP2 MSTORE PUSH1 0x20 ADD SWAP1 PUSH1 0x1 SWAP1 SUB SWAP1 DUP2 PUSH2 0x1469 JUMPI SWAP1 POP JUMPDEST POP DUP8 DUP4 DUP2 MLOAD DUP2 LT PUSH2 0x1492 JUMPI PUSH2 0x1491 PUSH2 0x2D92 JUMP JUMPDEST JUMPDEST PUSH1 0x20 MUL PUSH1 0x20 ADD ADD DUP2 SWAP1 MSTORE POP PUSH1 0x2 PUSH1 0x0 DUP3 DUP2 MSTORE PUSH1 0x20 ADD SWAP1 DUP2 MSTORE PUSH1 0x20 ADD PUSH1 0x0 KECCAK256 PUSH1 0x4 ADD DUP1 SLOAD SWAP1 POP PUSH8 0xFFFFFFFFFFFFFFFF DUP2 GT ISZERO PUSH2 0x14D0 JUMPI PUSH2 0x14CF PUSH2 0x20CB JUMP JUMPDEST JUMPDEST PUSH1 0x40 MLOAD SWAP1 DUP1 DUP3 MSTORE DUP1 PUSH1 0x20 MUL PUSH1 0x20 ADD DUP3 ADD PUSH1 0x40 MSTORE DUP1 ISZERO PUSH2 0x14FE JUMPI DUP2 PUSH1 0x20 ADD PUSH1 0x20 DUP3 MUL DUP1 CALLDATASIZE DUP4 CALLDATACOPY DUP1 DUP3 ADD SWAP2 POP POP SWAP1 POP JUMPDEST POP DUP7 DUP4 DUP2 MLOAD DUP2 LT PUSH2 0x1512 JUMPI PUSH2 0x1511 PUSH2 0x2D92 JUMP JUMPDEST JUMPDEST PUSH1 0x20 MUL PUSH1 0x20 ADD ADD DUP2 SWAP1 MSTORE POP PUSH1 0x0 JUMPDEST PUSH1 0x2 PUSH1 0x0 DUP4 DUP2 MSTORE PUSH1 0x20 ADD SWAP1 DUP2 MSTORE PUSH1 0x20 ADD PUSH1 0x0 KECCAK256 PUSH1 0x4 ADD DUP1 SLOAD SWAP1 POP DUP2 LT ISZERO PUSH2 0x16BB JUMPI PUSH1 0x2 PUSH1 0x0 DUP4 DUP2 MSTORE PUSH1 0x20 ADD SWAP1 DUP2 MSTORE PUSH1 0x20 ADD PUSH1 0x0 KECCAK256 PUSH1 0x4 ADD DUP2 DUP2 SLOAD DUP2 LT PUSH2 0x1569 JUMPI PUSH2 0x1568 PUSH2 0x2D92 JUMP JUMPDEST JUMPDEST SWAP1 PUSH1 0x0 MSTORE PUSH1 0x20 PUSH1 0x0 KECCAK256 SWAP1 PUSH1 0x2 MUL ADD PUSH1 0x0 ADD DUP1 SLOAD PUSH2 0x1585 SWAP1 PUSH2 0x3166 JUMP JUMPDEST DUP1 PUSH1 0x1F ADD PUSH1 0x20 DUP1 SWAP2 DIV MUL PUSH1 0x20 ADD PUSH1 0x40 MLOAD SWAP1 DUP2 ADD PUSH1 0x40 MSTORE DUP1 SWAP3 SWAP2 SWAP1 DUP2 DUP2 MSTORE PUSH1 0x20 ADD DUP3 DUP1 SLOAD PUSH2 0x15B1 SWAP1 PUSH2 0x3166 JUMP JUMPDEST DUP1 ISZERO PUSH2 0x15FE JUMPI DUP1 PUSH1 0x1F LT PUSH2 0x15D3 JUMPI PUSH2 0x100 DUP1 DUP4 SLOAD DIV MUL DUP4 MSTORE SWAP2 PUSH1 0x20 ADD SWAP2 PUSH2 0x15FE JUMP JUMPDEST DUP3 ADD SWAP2 SWAP1 PUSH1 0x0 MSTORE PUSH1 0x20 PUSH1 0x0 KECCAK256 SWAP1 JUMPDEST DUP2 SLOAD DUP2 MSTORE SWAP1 PUSH1 0x1 ADD SWAP1 PUSH1 0x20 ADD DUP1 DUP4 GT PUSH2 0x15E1 JUMPI DUP3 SWAP1 SUB PUSH1 0x1F AND DUP3 ADD SWAP2 JUMPDEST POP POP POP POP POP DUP9 DUP5 DUP2 MLOAD DUP2 LT PUSH2 0x1616 JUMPI PUSH2 0x1615 PUSH2 0x2D92 JUMP JUMPDEST JUMPDEST PUSH1 0x20 MUL PUSH1 0x20 ADD ADD MLOAD DUP3 DUP2 MLOAD DUP2 LT PUSH2 0x1630 JUMPI PUSH2 0x162F PUSH2 0x2D92 JUMP JUMPDEST JUMPDEST PUSH1 0x20 MUL PUSH1 0x20 ADD ADD DUP2 SWAP1 MSTORE POP PUSH1 0x2 PUSH1 0x0 DUP4 DUP2 MSTORE PUSH1 0x20 ADD SWAP1 DUP2 MSTORE PUSH1 0x20 ADD PUSH1 0x0 KECCAK256 PUSH1 0x4 ADD DUP2 DUP2 SLOAD DUP2 LT PUSH2 0x1663 JUMPI PUSH2 0x1662 PUSH2 0x2D92 JUMP JUMPDEST JUMPDEST SWAP1 PUSH1 0x0 MSTORE PUSH1 0x20 PUSH1 0x0 KECCAK256 SWAP1 PUSH1 0x2 MUL ADD PUSH1 0x1 ADD SLOAD DUP8 DUP5 DUP2 MLOAD DUP2 LT PUSH2 0x1688 JUMPI PUSH2 0x1687 PUSH2 0x2D92 JUMP JUMPDEST JUMPDEST PUSH1 0x20 MUL PUSH1 0x20 ADD ADD MLOAD DUP3 DUP2 MLOAD DUP2 LT PUSH2 0x16A2 JUMPI PUSH2 0x16A1 PUSH2 0x2D92 JUMP JUMPDEST JUMPDEST PUSH1 0x20 MUL PUSH1 0x20 ADD ADD DUP2 DUP2 MSTORE POP POP DUP1 DUP1 PUSH1 0x1 ADD SWAP2 POP POP PUSH2 0x1520 JUMP JUMPDEST POP DUP2 DUP1 PUSH2 0x16C7 SWAP1 PUSH2 0x2FF1 JUMP JUMPDEST SWAP3 POP POP JUMPDEST DUP1 DUP1 PUSH2 0x16D6 SWAP1 PUSH2 0x2FF1 JUMP JUMPDEST SWAP2 POP POP PUSH2 0x126C JUMP JUMPDEST POP POP POP POP POP SWAP1 SWAP2 SWAP3 SWAP4 SWAP5 SWAP6 JUMP JUMPDEST PUSH1 0x60 DUP1 PUSH1 0x60 DUP1 PUSH1 0x60 PUSH1 0x0 DUP1 PUSH1 0x1 SWAP1 POP JUMPDEST PUSH1 0x1 SLOAD DUP2 GT PUSH2 0x1743 JUMPI DUP8 PUSH1 0x2 PUSH1 0x0 DUP4 DUP2 MSTORE PUSH1 0x20 ADD SWAP1 DUP2 MSTORE PUSH1 0x20 ADD PUSH1 0x0 KECCAK256 PUSH1 0x7 ADD SLOAD SUB PUSH2 0x1730 JUMPI DUP2 DUP1 PUSH2 0x172C SWAP1 PUSH2 0x2FF1 JUMP JUMPDEST SWAP3 POP POP JUMPDEST DUP1 DUP1 PUSH2 0x173B SWAP1 PUSH2 0x2FF1 JUMP JUMPDEST SWAP2 POP POP PUSH2 0x16FB JUMP JUMPDEST POP DUP1 PUSH8 0xFFFFFFFFFFFFFFFF DUP2 GT ISZERO PUSH2 0x175E JUMPI PUSH2 0x175D PUSH2 0x20CB JUMP JUMPDEST JUMPDEST PUSH1 0x40 MLOAD SWAP1 DUP1 DUP3 MSTORE DUP1 PUSH1 0x20 MUL PUSH1 0x20 ADD DUP3 ADD PUSH1 0x40 MSTORE DUP1 ISZERO PUSH2 0x178C JUMPI DUP2 PUSH1 0x20 ADD PUSH1 0x20 DUP3 MUL DUP1 CALLDATASIZE DUP4 CALLDATACOPY DUP1 DUP3 ADD SWAP2 POP POP SWAP1 POP JUMPDEST POP SWAP6 POP DUP1 PUSH8 0xFFFFFFFFFFFFFFFF DUP2 GT ISZERO PUSH2 0x17A9 JUMPI PUSH2 0x17A8 PUSH2 0x20CB JUMP JUMPDEST JUMPDEST PUSH1 0x40 MLOAD SWAP1 DUP1 DUP3 MSTORE DUP1 PUSH1 0x20 MUL PUSH1 0x20 ADD DUP3 ADD PUSH1 0x40 MSTORE DUP1 ISZERO PUSH2 0x17DC JUMPI DUP2 PUSH1 0x20 ADD JUMPDEST PUSH1 0x60 DUP2 MSTORE PUSH1 0x20 ADD SWAP1 PUSH1 0x1 SWAP1 SUB SWAP1 DUP2 PUSH2 0x17C7 JUMPI SWAP1 POP JUMPDEST POP SWAP5 POP DUP1 PUSH8 0xFFFFFFFFFFFFFFFF DUP2 GT ISZERO PUSH2 0x17F9 JUMPI PUSH2 0x17F8 PUSH2 0x20CB JUMP JUMPDEST JUMPDEST PUSH1 0x40 MLOAD SWAP1 DUP1 DUP3 MSTORE DUP1 PUSH1 0x20 MUL PUSH1 0x20 ADD DUP3 ADD PUSH1 0x40 MSTORE DUP1 ISZERO PUSH2 0x1827 JUMPI DUP2 PUSH1 0x20 ADD PUSH1 0x20 DUP3 MUL DUP1 CALLDATASIZE DUP4 CALLDATACOPY DUP1 DUP3 ADD SWAP2 POP POP SWAP1 POP JUMPDEST POP SWAP4 POP DUP1 PUSH8 0xFFFFFFFFFFFFFFFF DUP2 GT ISZERO PUSH2 0x1844 JUMPI PUSH2 0x1843 PUSH2 0x20CB JUMP JUMPDEST JUMPDEST PUSH1 0x40 MLOAD SWAP1 DUP1 DUP3 MSTORE DUP1 PUSH1 0x20 MUL PUSH1 0x20 ADD DUP3 ADD PUSH1 0x40 MSTORE DUP1 ISZERO PUSH2 0x1872 JUMPI DUP2 PUSH1 0x20 ADD PUSH1 0x20 DUP3 MUL DUP1 CALLDATASIZE DUP4 CALLDATACOPY DUP1 DUP3 ADD SWAP2 POP POP SWAP1 POP JUMPDEST POP SWAP3 POP DUP1 PUSH8 0xFFFFFFFFFFFFFFFF DUP2 GT ISZERO PUSH2 0x188F JUMPI PUSH2 0x188E PUSH2 0x20CB JUMP JUMPDEST JUMPDEST PUSH1 0x40 MLOAD SWAP1 DUP1 DUP3 MSTORE DUP1 PUSH1 0x20 MUL PUSH1 0x20 ADD DUP3 ADD PUSH1 0x40 MSTORE DUP1 ISZERO PUSH2 0x18BD JUMPI DUP2 PUSH1 0x20 ADD PUSH1 0x20 DUP3 MUL DUP1 CALLDATASIZE DUP4 CALLDATACOPY DUP1 DUP3 ADD SWAP2 POP POP SWAP1 POP JUMPDEST POP SWAP2 POP PUSH1 0x0 DUP1 PUSH1 0x1 SWAP1 POP JUMPDEST PUSH1 0x1 SLOAD DUP2 GT PUSH2 0x1AB8 JUMPI DUP9 PUSH1 0x2 PUSH1 0x0 DUP4 DUP2 MSTORE PUSH1 0x20 ADD SWAP1 DUP2 MSTORE PUSH1 0x20 ADD PUSH1 0x0 KECCAK256 PUSH1 0x7 ADD SLOAD SUB PUSH2 0x1AA5 JUMPI PUSH1 0x2 PUSH1 0x0 DUP3 DUP2 MSTORE PUSH1 0x20 ADD SWAP1 DUP2 MSTORE PUSH1 0x20 ADD PUSH1 0x0 KECCAK256 PUSH1 0x1 ADD SLOAD DUP9 DUP4 DUP2 MLOAD DUP2 LT PUSH2 0x1918 JUMPI PUSH2 0x1917 PUSH2 0x2D92 JUMP JUMPDEST JUMPDEST PUSH1 0x20 MUL PUSH1 0x20 ADD ADD DUP2 DUP2 MSTORE POP POP PUSH1 0x2 PUSH1 0x0 DUP3 DUP2 MSTORE PUSH1 0x20 ADD SWAP1 DUP2 MSTORE PUSH1 0x20 ADD PUSH1 0x0 KECCAK256 PUSH1 0x0 ADD DUP1 SLOAD PUSH2 0x1945 SWAP1 PUSH2 0x3166 JUMP JUMPDEST DUP1 PUSH1 0x1F ADD PUSH1 0x20 DUP1 SWAP2 DIV MUL PUSH1 0x20 ADD PUSH1 0x40 MLOAD SWAP1 DUP2 ADD PUSH1 0x40 MSTORE DUP1 SWAP3 SWAP2 SWAP1 DUP2 DUP2 MSTORE PUSH1 0x20 ADD DUP3 DUP1 SLOAD PUSH2 0x1971 SWAP1 PUSH2 0x3166 JUMP JUMPDEST DUP1 ISZERO PUSH2 0x19BE JUMPI DUP1 PUSH1 0x1F LT PUSH2 0x1993 JUMPI PUSH2 0x100 DUP1 DUP4 SLOAD DIV MUL DUP4 MSTORE SWAP2 PUSH1 0x20 ADD SWAP2 PUSH2 0x19BE JUMP JUMPDEST DUP3 ADD SWAP2 SWAP1 PUSH1 0x0 MSTORE PUSH1 0x20 PUSH1 0x0 KECCAK256 SWAP1 JUMPDEST DUP2 SLOAD DUP2 MSTORE SWAP1 PUSH1 0x1 ADD SWAP1 PUSH1 0x20 ADD DUP1 DUP4 GT PUSH2 0x19A1 JUMPI DUP3 SWAP1 SUB PUSH1 0x1F AND DUP3 ADD SWAP2 JUMPDEST POP POP POP POP POP DUP8 DUP4 DUP2 MLOAD DUP2 LT PUSH2 0x19D6 JUMPI PUSH2 0x19D5 PUSH2 0x2D92 JUMP JUMPDEST JUMPDEST PUSH1 0x20 MUL PUSH1 0x20 ADD ADD DUP2 SWAP1 MSTORE POP PUSH1 0x2 PUSH1 0x0 DUP3 DUP2 MSTORE PUSH1 0x20 ADD SWAP1 DUP2 MSTORE PUSH1 0x20 ADD PUSH1 0x0 KECCAK256 PUSH1 0x2 ADD SLOAD DUP7 DUP4 DUP2 MLOAD DUP2 LT PUSH2 0x1A0B JUMPI PUSH2 0x1A0A PUSH2 0x2D92 JUMP JUMPDEST JUMPDEST PUSH1 0x20 MUL PUSH1 0x20 ADD ADD DUP2 DUP2 MSTORE POP POP PUSH1 0x2 PUSH1 0x0 DUP3 DUP2 MSTORE PUSH1 0x20 ADD SWAP1 DUP2 MSTORE PUSH1 0x20 ADD PUSH1 0x0 KECCAK256 PUSH1 0x3 ADD SLOAD DUP6 DUP4 DUP2 MLOAD DUP2 LT PUSH2 0x1A41 JUMPI PUSH2 0x1A40 PUSH2 0x2D92 JUMP JUMPDEST JUMPDEST PUSH1 0x20 MUL PUSH1 0x20 ADD ADD DUP2 DUP2 MSTORE POP POP PUSH1 0x2 PUSH1 0x0 DUP3 DUP2 MSTORE PUSH1 0x20 ADD SWAP1 DUP2 MSTORE PUSH1 0x20 ADD PUSH1 0x0 KECCAK256 PUSH1 0x9 ADD PUSH1 0x0 SWAP1 SLOAD SWAP1 PUSH2 0x100 EXP SWAP1 DIV PUSH1 0xFF AND DUP5 DUP4 DUP2 MLOAD DUP2 LT PUSH2 0x1A84 JUMPI PUSH2 0x1A83 PUSH2 0x2D92 JUMP JUMPDEST JUMPDEST PUSH1 0x20 MUL PUSH1 0x20 ADD ADD SWAP1 ISZERO ISZERO SWAP1 DUP2 ISZERO ISZERO DUP2 MSTORE POP POP DUP2 DUP1 PUSH2 0x1AA1 SWAP1 PUSH2 0x2FF1 JUMP JUMPDEST SWAP3 POP POP JUMPDEST DUP1 DUP1 PUSH2 0x1AB0 SWAP1 PUSH2 0x2FF1 JUMP JUMPDEST SWAP2 POP POP PUSH2 0x18C8 JUMP JUMPDEST POP POP POP SWAP2 SWAP4 SWAP6 SWAP1 SWAP3 SWAP5 POP JUMP JUMPDEST PUSH1 0x1 SLOAD DUP2 JUMP JUMPDEST PUSH1 0x0 DUP1 SLOAD SWAP1 PUSH2 0x100 EXP SWAP1 DIV PUSH20 0xFFFFFFFFFFFFFFFFFFFFFFFFFFFFFFFFFFFFFFFF AND PUSH20 0xFFFFFFFFFFFFFFFFFFFFFFFFFFFFFFFFFFFFFFFF AND CALLER PUSH20 0xFFFFFFFFFFFFFFFFFFFFFFFFFFFFFFFFFFFFFFFF AND EQ PUSH2 0x1B58 JUMPI PUSH1 0x40 MLOAD PUSH32 0x8C379A000000000000000000000000000000000000000000000000000000000 DUP2 MSTORE PUSH1 0x4 ADD PUSH2 0x1B4F SWAP1 PUSH2 0x30AB JUMP JUMPDEST PUSH1 0x40 MLOAD DUP1 SWAP2 SUB SWAP1 REVERT JUMPDEST DUP6 PUSH1 0x1 DUP2 SWAP1 SSTORE POP PUSH1 0x0 PUSH1 0x2 PUSH1 0x0 PUSH1 0x1 SLOAD DUP2 MSTORE PUSH1 0x20 ADD SWAP1 DUP2 MSTORE PUSH1 0x20 ADD PUSH1 0x0 KECCAK256 SWAP1 POP DUP6 DUP2 PUSH1 0x0 ADD SWAP1 DUP2 PUSH2 0x1B89 SWAP2 SWAP1 PUSH2 0x3343 JUMP JUMPDEST POP PUSH1 0x1 SLOAD DUP2 PUSH1 0x1 ADD DUP2 SWAP1 SSTORE POP DUP5 DUP2 PUSH1 0x2 ADD DUP2 SWAP1 SSTORE POP DUP4 DUP2 PUSH1 0x3 ADD DUP2 SWAP1 SSTORE POP DUP3 DUP2 PUSH1 0x7 ADD DUP2 SWAP1 SSTORE POP PUSH1 0x0 DUP2 PUSH1 0x8 ADD DUP2 SWAP1 SSTORE POP PUSH1 0x1 DUP2 PUSH1 0x9 ADD PUSH1 0x0 PUSH2 0x100 EXP DUP2 SLOAD DUP2 PUSH1 0xFF MUL NOT AND SWAP1 DUP4 ISZERO ISZERO MUL OR SWAP1 SSTORE POP PUSH1 0x0 JUMPDEST DUP3 MLOAD DUP2 LT ISZERO PUSH2 0x1C16 JUMPI PUSH2 0x1C09 PUSH1 0x1 SLOAD DUP5 DUP4 DUP2 MLOAD DUP2 LT PUSH2 0x1BFC JUMPI PUSH2 0x1BFB PUSH2 0x2D92 JUMP JUMPDEST JUMPDEST PUSH1 0x20 MUL PUSH1 0x20 ADD ADD MLOAD PUSH2 0x1D5F JUMP JUMPDEST DUP1 DUP1 PUSH1 0x1 ADD SWAP2 POP POP PUSH2 0x1BDA JUMP JUMPDEST POP CALLER PUSH1 0x3 PUSH1 0x0 PUSH1 0x1 SLOAD DUP2 MSTORE PUSH1 0x20 ADD SWAP1 DUP2 MSTORE PUSH1 0x20 ADD PUSH1 0x0 KECCAK256 PUSH1 0x0 PUSH2 0x100 EXP DUP2 SLOAD DUP2 PUSH20 0xFFFFFFFFFFFFFFFFFFFFFFFFFFFFFFFFFFFFFFFF MUL NOT AND SWAP1 DUP4 PUSH20 0xFFFFFFFFFFFFFFFFFFFFFFFFFFFFFFFFFFFFFFFF AND MUL OR SWAP1 SSTORE POP PUSH2 0x1C78 PUSH1 0x1 SLOAD CALLER DUP6 PUSH2 0x78B JUMP JUMPDEST POP POP POP POP POP POP POP JUMP JUMPDEST PUSH1 0x60 PUSH1 0x0 DUP1 PUSH1 0x2 PUSH1 0x0 DUP7 DUP2 MSTORE PUSH1 0x20 ADD SWAP1 DUP2 MSTORE PUSH1 0x20 ADD PUSH1 0x0 KECCAK256 PUSH1 0x4 ADD DUP5 DUP2 SLOAD DUP2 LT PUSH2 0x1CAE JUMPI PUSH2 0x1CAD PUSH2 0x2D92 JUMP JUMPDEST JUMPDEST SWAP1 PUSH1 0x0 MSTORE PUSH1 0x20 PUSH1 0x0 KECCAK256 SWAP1 PUSH1 0x2 MUL ADD SWAP1 POP DUP1 PUSH1 0x0 ADD DUP2 PUSH1 0x1 ADD SLOAD DUP2 DUP1 SLOAD PUSH2 0x1CD3 SWAP1 PUSH2 0x3166 JUMP JUMPDEST DUP1 PUSH1 0x1F ADD PUSH1 0x20 DUP1 SWAP2 DIV MUL PUSH1 0x20 ADD PUSH1 0x40 MLOAD SWAP1 DUP2 ADD PUSH1 0x40 MSTORE DUP1 SWAP3 SWAP2 SWAP1 DUP2 DUP2 MSTORE PUSH1 0x20 ADD DUP3 DUP1 SLOAD PUSH2 0x1CFF SWAP1 PUSH2 0x3166 JUMP JUMPDEST DUP1 ISZERO PUSH2 0x1D4C JUMPI DUP1 PUSH1 0x1F LT PUSH2 0x1D21 JUMPI PUSH2 0x100 DUP1 DUP4 SLOAD DIV MUL DUP4 MSTORE SWAP2 PUSH1 0x20 ADD SWAP2 PUSH2 0x1D4C JUMP JUMPDEST DUP3 ADD SWAP2 SWAP1 PUSH1 0x0 MSTORE PUSH1 0x20 PUSH1 0x0 KECCAK256 SWAP1 JUMPDEST DUP2 SLOAD DUP2 MSTORE SWAP1 PUSH1 0x1 ADD SWAP1 PUSH1 0x20 ADD DUP1 DUP4 GT PUSH2 0x1D2F JUMPI DUP3 SWAP1 SUB PUSH1 0x1F AND DUP3 ADD SWAP2 JUMPDEST POP POP POP POP POP SWAP2 POP SWAP3 POP SWAP3 POP POP SWAP3 POP SWAP3 SWAP1 POP JUMP JUMPDEST PUSH1 0x0 PUSH1 0x2 PUSH1 0x0 DUP5 DUP2 MSTORE PUSH1 0x20 ADD SWAP1 DUP2 MSTORE PUSH1 0x20 ADD PUSH1 0x0 KECCAK256 PUSH1 0x1 ADD SLOAD SUB PUSH2 0x1DB8 JUMPI PUSH1 0x40 MLOAD PUSH32 0x8C379A000000000000000000000000000000000000000000000000000000000 DUP2 MSTORE PUSH1 0x4 ADD PUSH2 0x1DAF SWAP1 PUSH2 0x2D0F JUMP JUMPDEST PUSH1 0x40 MLOAD DUP1 SWAP2 SUB SWAP1 REVERT JUMPDEST PUSH1 0x2 PUSH1 0x0 DUP4 DUP2 MSTORE PUSH1 0x20 ADD SWAP1 DUP2 MSTORE PUSH1 0x20 ADD PUSH1 0x0 KECCAK256 PUSH1 0x4 ADD PUSH1 0x40 MLOAD DUP1 PUSH1 0x40 ADD PUSH1 0x40 MSTORE DUP1 DUP4 DUP2 MSTORE PUSH1 0x20 ADD PUSH1 0x0 DUP2 MSTORE POP SWAP1 DUP1 PUSH1 0x1 DUP2 SLOAD ADD DUP1 DUP3 SSTORE DUP1 SWAP2 POP POP PUSH1 0x1 SWAP1 SUB SWAP1 PUSH1 0x0 MSTORE PUSH1 0x20 PUSH1 0x0 KECCAK256 SWAP1 PUSH1 0x2 MUL ADD PUSH1 0x0 SWAP1 SWAP2 SWAP1 SWAP2 SWAP1 SWAP2 POP PUSH1 0x0 DUP3 ADD MLOAD DUP2 PUSH1 0x0 ADD SWAP1 DUP2 PUSH2 0x1E22 SWAP2 SWAP1 PUSH2 0x3343 JUMP JUMPDEST POP PUSH1 0x20 DUP3 ADD MLOAD DUP2 PUSH1 0x1 ADD SSTORE POP POP PUSH1 0x2 PUSH1 0x0 DUP4 DUP2 MSTORE PUSH1 0x20 ADD SWAP1 DUP2 MSTORE PUSH1 0x20 ADD PUSH1 0x0 KECCAK256 PUSH1 0x8 ADD PUSH1 0x0 DUP2 SLOAD DUP1 SWAP3 SWAP2 SWAP1 PUSH2 0x1E56 SWAP1 PUSH2 0x2FF1 JUMP JUMPDEST SWAP2 SWAP1 POP SSTORE POP POP POP JUMP JUMPDEST PUSH1 0x0 DUP1 SLOAD SWAP1 PUSH2 0x100 EXP SWAP1 DIV PUSH20 0xFFFFFFFFFFFFFFFFFFFFFFFFFFFFFFFFFFFFFFFF AND DUP2 JUMP JUMPDEST PUSH1 0x0 PUSH1 0x40 MLOAD SWAP1 POP SWAP1 JUMP JUMPDEST PUSH1 0x0 DUP1 REVERT JUMPDEST PUSH1 0x0 DUP1 REVERT JUMPDEST PUSH1 0x0 DUP2 SWAP1 POP SWAP2 SWAP1 POP JUMP JUMPDEST PUSH2 0x1EAA DUP2 PUSH2 0x1E97 JUMP JUMPDEST DUP2 EQ PUSH2 0x1EB5 JUMPI PUSH1 0x0 DUP1 REVERT JUMPDEST POP JUMP JUMPDEST PUSH1 0x0 DUP2 CALLDATALOAD SWAP1 POP PUSH2 0x1EC7 DUP2 PUSH2 0x1EA1 JUMP JUMPDEST SWAP3 SWAP2 POP POP JUMP JUMPDEST PUSH1 0x0 DUP1 PUSH1 0x40 DUP4 DUP6 SUB SLT ISZERO PUSH2 0x1EE4 JUMPI PUSH2 0x1EE3 PUSH2 0x1E8D JUMP JUMPDEST JUMPDEST PUSH1 0x0 PUSH2 0x1EF2 DUP6 DUP3 DUP7 ADD PUSH2 0x1EB8 JUMP JUMPDEST SWAP3 POP POP PUSH1 0x20 PUSH2 0x1F03 DUP6 DUP3 DUP7 ADD PUSH2 0x1EB8 JUMP JUMPDEST SWAP2 POP POP SWAP3 POP SWAP3 SWAP1 POP JUMP JUMPDEST PUSH1 0x0 PUSH1 0x20 DUP3 DUP5 SUB SLT ISZERO PUSH2 0x1F23 JUMPI PUSH2 0x1F22 PUSH2 0x1E8D JUMP JUMPDEST JUMPDEST PUSH1 0x0 PUSH2 0x1F31 DUP5 DUP3 DUP6 ADD PUSH2 0x1EB8 JUMP JUMPDEST SWAP2 POP POP SWAP3 SWAP2 POP POP JUMP JUMPDEST PUSH2 0x1F43 DUP2 PUSH2 0x1E97 JUMP JUMPDEST DUP3 MSTORE POP POP JUMP JUMPDEST PUSH1 0x0 PUSH1 0x20 DUP3 ADD SWAP1 POP PUSH2 0x1F5E PUSH1 0x0 DUP4 ADD DUP5 PUSH2 0x1F3A JUMP JUMPDEST SWAP3 SWAP2 POP POP JUMP JUMPDEST PUSH1 0x0 PUSH20 0xFFFFFFFFFFFFFFFFFFFFFFFFFFFFFFFFFFFFFFFF DUP3 AND SWAP1 POP SWAP2 SWAP1 POP JUMP JUMPDEST PUSH1 0x0 PUSH2 0x1F8F DUP3 PUSH2 0x1F64 JUMP JUMPDEST SWAP1 POP SWAP2 SWAP1 POP JUMP JUMPDEST PUSH2 0x1F9F DUP2 PUSH2 0x1F84 JUMP JUMPDEST DUP2 EQ PUSH2 0x1FAA JUMPI PUSH1 0x0 DUP1 REVERT JUMPDEST POP JUMP JUMPDEST PUSH1 0x0 DUP2 CALLDATALOAD SWAP1 POP PUSH2 0x1FBC DUP2 PUSH2 0x1F96 JUMP JUMPDEST SWAP3 SWAP2 POP POP JUMP JUMPDEST PUSH1 0x0 DUP1 PUSH1 0x40 DUP4 DUP6 SUB SLT ISZERO PUSH2 0x1FD9 JUMPI PUSH2 0x1FD8 PUSH2 0x1E8D JUMP JUMPDEST JUMPDEST PUSH1 0x0 PUSH2 0x1FE7 DUP6 DUP3 DUP7 ADD PUSH2 0x1EB8 JUMP JUMPDEST SWAP3 POP POP PUSH1 0x20 PUSH2 0x1FF8 DUP6 DUP3 DUP7 ADD PUSH2 0x1FAD JUMP JUMPDEST SWAP2 POP POP SWAP3 POP SWAP3 SWAP1 POP JUMP JUMPDEST PUSH1 0x0 DUP2 ISZERO ISZERO SWAP1 POP SWAP2 SWAP1 POP JUMP JUMPDEST PUSH2 0x2017 DUP2 PUSH2 0x2002 JUMP JUMPDEST DUP3 MSTORE POP POP JUMP JUMPDEST PUSH1 0x0 PUSH1 0x20 DUP3 ADD SWAP1 POP PUSH2 0x2032 PUSH1 0x0 DUP4 ADD DUP5 PUSH2 0x200E JUMP JUMPDEST SWAP3 SWAP2 POP POP JUMP JUMPDEST PUSH1 0x0 DUP1 PUSH1 0x0 PUSH1 0x60 DUP5 DUP7 SUB SLT ISZERO PUSH2 0x2051 JUMPI PUSH2 0x2050 PUSH2 0x1E8D JUMP JUMPDEST JUMPDEST PUSH1 0x0 PUSH2 0x205F DUP7 DUP3 DUP8 ADD PUSH2 0x1EB8 JUMP JUMPDEST SWAP4 POP POP PUSH1 0x20 PUSH2 0x2070 DUP7 DUP3 DUP8 ADD PUSH2 0x1FAD JUMP JUMPDEST SWAP3 POP POP PUSH1 0x40 PUSH2 0x2081 DUP7 DUP3 DUP8 ADD PUSH2 0x1EB8 JUMP JUMPDEST SWAP2 POP POP SWAP3 POP SWAP3 POP SWAP3 JUMP JUMPDEST PUSH2 0x2094 DUP2 PUSH2 0x1F84 JUMP JUMPDEST DUP3 MSTORE POP POP JUMP JUMPDEST PUSH1 0x0 PUSH1 0x20 DUP3 ADD SWAP1 POP PUSH2 0x20AF PUSH1 0x0 DUP4 ADD DUP5 PUSH2 0x208B JUMP JUMPDEST SWAP3 SWAP2 POP POP JUMP JUMPDEST PUSH1 0x0 DUP1 REVERT JUMPDEST PUSH1 0x0 PUSH1 0x1F NOT PUSH1 0x1F DUP4 ADD AND SWAP1 POP SWAP2 SWAP1 POP JUMP JUMPDEST PUSH32 0x4E487B7100000000000000000000000000000000000000000000000000000000 PUSH1 0x0 MSTORE PUSH1 0x41 PUSH1 0x4 MSTORE PUSH1 0x24 PUSH1 0x0 REVERT JUMPDEST PUSH2 0x2103 DUP3 PUSH2 0x20BA JUMP JUMPDEST DUP2 ADD DUP2 DUP2 LT PUSH8 0xFFFFFFFFFFFFFFFF DUP3 GT OR ISZERO PUSH2 0x2122 JUMPI PUSH2 0x2121 PUSH2 0x20CB JUMP JUMPDEST JUMPDEST DUP1 PUSH1 0x40 MSTORE POP POP POP JUMP JUMPDEST PUSH1 0x0 PUSH2 0x2135 PUSH2 0x1E83 JUMP JUMPDEST SWAP1 POP PUSH2 0x2141 DUP3 DUP3 PUSH2 0x20FA JUMP JUMPDEST SWAP2 SWAP1 POP JUMP JUMPDEST PUSH1 0x0 PUSH8 0xFFFFFFFFFFFFFFFF DUP3 GT ISZERO PUSH2 0x2161 JUMPI PUSH2 0x2160 PUSH2 0x20CB JUMP JUMPDEST JUMPDEST PUSH1 0x20 DUP3 MUL SWAP1 POP PUSH1 0x20 DUP2 ADD SWAP1 POP SWAP2 SWAP1 POP JUMP JUMPDEST PUSH1 0x0 DUP1 REVERT JUMPDEST PUSH1 0x0 PUSH2 0x218A PUSH2 0x2185 DUP5 PUSH2 0x2146 JUMP JUMPDEST PUSH2 0x212B JUMP JUMPDEST SWAP1 POP DUP1 DUP4 DUP3 MSTORE PUSH1 0x20 DUP3 ADD SWAP1 POP PUSH1 0x20 DUP5 MUL DUP4 ADD DUP6 DUP2 GT ISZERO PUSH2 0x21AD JUMPI PUSH2 0x21AC PUSH2 0x2172 JUMP JUMPDEST JUMPDEST DUP4 JUMPDEST DUP2 DUP2 LT ISZERO PUSH2 0x21D6 JUMPI DUP1 PUSH2 0x21C2 DUP9 DUP3 PUSH2 0x1FAD JUMP JUMPDEST DUP5 MSTORE PUSH1 0x20 DUP5 ADD SWAP4 POP POP PUSH1 0x20 DUP2 ADD SWAP1 POP PUSH2 0x21AF JUMP JUMPDEST POP POP POP SWAP4 SWAP3 POP POP POP JUMP JUMPDEST PUSH1 0x0 DUP3 PUSH1 0x1F DUP4 ADD SLT PUSH2 0x21F5 JUMPI PUSH2 0x21F4 PUSH2 0x20B5 JUMP JUMPDEST JUMPDEST DUP2 CALLDATALOAD PUSH2 0x2205 DUP5 DUP3 PUSH1 0x20 DUP7 ADD PUSH2 0x2177 JUMP JUMPDEST SWAP2 POP POP SWAP3 SWAP2 POP POP JUMP JUMPDEST PUSH1 0x0 DUP1 PUSH1 0x0 PUSH1 0x60 DUP5 DUP7 SUB SLT ISZERO PUSH2 0x2227 JUMPI PUSH2 0x2226 PUSH2 0x1E8D JUMP JUMPDEST JUMPDEST PUSH1 0x0 PUSH2 0x2235 DUP7 DUP3 DUP8 ADD PUSH2 0x1EB8 JUMP JUMPDEST SWAP4 POP POP PUSH1 0x20 DUP5 ADD CALLDATALOAD PUSH8 0xFFFFFFFFFFFFFFFF DUP2 GT ISZERO PUSH2 0x2256 JUMPI PUSH2 0x2255 PUSH2 0x1E92 JUMP JUMPDEST JUMPDEST PUSH2 0x2262 DUP7 DUP3 DUP8 ADD PUSH2 0x21E0 JUMP JUMPDEST SWAP3 POP POP PUSH1 0x40 PUSH2 0x2273 DUP7 DUP3 DUP8 ADD PUSH2 0x1EB8 JUMP JUMPDEST SWAP2 POP POP SWAP3 POP SWAP3 POP SWAP3 JUMP JUMPDEST PUSH1 0x0 DUP2 MLOAD SWAP1 POP SWAP2 SWAP1 POP JUMP JUMPDEST PUSH1 0x0 DUP3 DUP3 MSTORE PUSH1 0x20 DUP3 ADD SWAP1 POP SWAP3 SWAP2 POP POP JUMP JUMPDEST PUSH1 0x0 JUMPDEST DUP4 DUP2 LT ISZERO PUSH2 0x22B7 JUMPI DUP1 DUP3 ADD MLOAD DUP2 DUP5 ADD MSTORE PUSH1 0x20 DUP2 ADD SWAP1 POP PUSH2 0x229C JUMP JUMPDEST PUSH1 0x0 DUP5 DUP5 ADD MSTORE POP POP POP POP JUMP JUMPDEST PUSH1 0x0 PUSH2 0x22CE DUP3 PUSH2 0x227D JUMP JUMPDEST PUSH2 0x22D8 DUP2 DUP6 PUSH2 0x2288 JUMP JUMPDEST SWAP4 POP PUSH2 0x22E8 DUP2 DUP6 PUSH1 0x20 DUP7 ADD PUSH2 0x2299 JUMP JUMPDEST PUSH2 0x22F1 DUP2 PUSH2 0x20BA JUMP JUMPDEST DUP5 ADD SWAP2 POP POP SWAP3 SWAP2 POP POP JUMP JUMPDEST PUSH1 0x0 PUSH1 0xC0 DUP3 ADD SWAP1 POP DUP2 DUP2 SUB PUSH1 0x0 DUP4 ADD MSTORE PUSH2 0x2316 DUP2 DUP10 PUSH2 0x22C3 JUMP JUMPDEST SWAP1 POP PUSH2 0x2325 PUSH1 0x20 DUP4 ADD DUP9 PUSH2 0x1F3A JUMP JUMPDEST PUSH2 0x2332 PUSH1 0x40 DUP4 ADD DUP8 PUSH2 0x1F3A JUMP JUMPDEST PUSH2 0x233F PUSH1 0x60 DUP4 ADD DUP7 PUSH2 0x1F3A JUMP JUMPDEST PUSH2 0x234C PUSH1 0x80 DUP4 ADD DUP6 PUSH2 0x1F3A JUMP JUMPDEST PUSH2 0x2359 PUSH1 0xA0 DUP4 ADD DUP5 PUSH2 0x200E JUMP JUMPDEST SWAP8 SWAP7 POP POP POP POP POP POP POP JUMP JUMPDEST PUSH1 0x0 PUSH1 0xE0 DUP3 ADD SWAP1 POP DUP2 DUP2 SUB PUSH1 0x0 DUP4 ADD MSTORE PUSH2 0x237E DUP2 DUP11 PUSH2 0x22C3 JUMP JUMPDEST SWAP1 POP PUSH2 0x238D PUSH1 0x20 DUP4 ADD DUP10 PUSH2 0x1F3A JUMP JUMPDEST PUSH2 0x239A PUSH1 0x40 DUP4 ADD DUP9 PUSH2 0x1F3A JUMP JUMPDEST PUSH2 0x23A7 PUSH1 0x60 DUP4 ADD DUP8 PUSH2 0x1F3A JUMP JUMPDEST PUSH2 0x23B4 PUSH1 0x80 DUP4 ADD DUP7 PUSH2 0x1F3A JUMP JUMPDEST PUSH2 0x23C1 PUSH1 0xA0 DUP4 ADD DUP6 PUSH2 0x1F3A JUMP JUMPDEST PUSH2 0x23CE PUSH1 0xC0 DUP4 ADD DUP5 PUSH2 0x200E JUMP JUMPDEST SWAP9 SWAP8 POP POP POP POP POP POP POP POP JUMP JUMPDEST PUSH1 0x0 DUP2 MLOAD SWAP1 POP SWAP2 SWAP1 POP JUMP JUMPDEST PUSH1 0x0 DUP3 DUP3 MSTORE PUSH1 0x20 DUP3 ADD SWAP1 POP SWAP3 SWAP2 POP POP JUMP JUMPDEST PUSH1 0x0 DUP2 SWAP1 POP PUSH1 0x20 DUP3 ADD SWAP1 POP SWAP2 SWAP1 POP JUMP JUMPDEST PUSH2 0x240F DUP2 PUSH2 0x1E97 JUMP JUMPDEST DUP3 MSTORE POP POP JUMP JUMPDEST PUSH1 0x0 PUSH2 0x2421 DUP4 DUP4 PUSH2 0x2406 JUMP JUMPDEST PUSH1 0x20 DUP4 ADD SWAP1 POP SWAP3 SWAP2 POP POP JUMP JUMPDEST PUSH1 0x0 PUSH1 0x20 DUP3 ADD SWAP1 POP SWAP2 SWAP1 POP JUMP JUMPDEST PUSH1 0x0 PUSH2 0x2445 DUP3 PUSH2 0x23DA JUMP JUMPDEST PUSH2 0x244F DUP2 DUP6 PUSH2 0x23E5 JUMP JUMPDEST SWAP4 POP PUSH2 0x245A DUP4 PUSH2 0x23F6 JUMP JUMPDEST DUP1 PUSH1 0x0 JUMPDEST DUP4 DUP2 LT ISZERO PUSH2 0x248B JUMPI DUP2 MLOAD PUSH2 0x2472 DUP9 DUP3 PUSH2 0x2415 JUMP JUMPDEST SWAP8 POP PUSH2 0x247D DUP4 PUSH2 0x242D JUMP JUMPDEST SWAP3 POP POP PUSH1 0x1 DUP2 ADD SWAP1 POP PUSH2 0x245E JUMP JUMPDEST POP DUP6 SWAP4 POP POP POP POP SWAP3 SWAP2 POP POP JUMP JUMPDEST PUSH1 0x0 DUP2 MLOAD SWAP1 POP SWAP2 SWAP1 POP JUMP JUMPDEST PUSH1 0x0 DUP3 DUP3 MSTORE PUSH1 0x20 DUP3 ADD SWAP1 POP SWAP3 SWAP2 POP POP JUMP JUMPDEST PUSH1 0x0 DUP2 SWAP1 POP PUSH1 0x20 DUP3 ADD SWAP1 POP SWAP2 SWAP1 POP JUMP JUMPDEST PUSH1 0x0 DUP3 DUP3 MSTORE PUSH1 0x20 DUP3 ADD SWAP1 POP SWAP3 SWAP2 POP POP JUMP JUMPDEST PUSH1 0x0 PUSH2 0x24E0 DUP3 PUSH2 0x227D JUMP JUMPDEST PUSH2 0x24EA DUP2 DUP6 PUSH2 0x24C4 JUMP JUMPDEST SWAP4 POP PUSH2 0x24FA DUP2 DUP6 PUSH1 0x20 DUP7 ADD PUSH2 0x2299 JUMP JUMPDEST PUSH2 0x2503 DUP2 PUSH2 0x20BA JUMP JUMPDEST DUP5 ADD SWAP2 POP POP SWAP3 SWAP2 POP POP JUMP JUMPDEST PUSH1 0x0 PUSH2 0x251A DUP4 DUP4 PUSH2 0x24D5 JUMP JUMPDEST SWAP1 POP SWAP3 SWAP2 POP POP JUMP JUMPDEST PUSH1 0x0 PUSH1 0x20 DUP3 ADD SWAP1 POP SWAP2 SWAP1 POP JUMP JUMPDEST PUSH1 0x0 PUSH2 0x253A DUP3 PUSH2 0x2498 JUMP JUMPDEST PUSH2 0x2544 DUP2 DUP6 PUSH2 0x24A3 JUMP JUMPDEST SWAP4 POP DUP4 PUSH1 0x20 DUP3 MUL DUP6 ADD PUSH2 0x2556 DUP6 PUSH2 0x24B4 JUMP JUMPDEST DUP1 PUSH1 0x0 JUMPDEST DUP6 DUP2 LT ISZERO PUSH2 0x2592 JUMPI DUP5 DUP5 SUB DUP10 MSTORE DUP2 MLOAD PUSH2 0x2573 DUP6 DUP3 PUSH2 0x250E JUMP JUMPDEST SWAP5 POP PUSH2 0x257E DUP4 PUSH2 0x2522 JUMP JUMPDEST SWAP3 POP PUSH1 0x20 DUP11 ADD SWAP10 POP POP PUSH1 0x1 DUP2 ADD SWAP1 POP PUSH2 0x255A JUMP JUMPDEST POP DUP3 SWAP8 POP DUP8 SWAP6 POP POP POP POP POP POP SWAP3 SWAP2 POP POP JUMP JUMPDEST PUSH1 0x0 DUP2 MLOAD SWAP1 POP SWAP2 SWAP1 POP JUMP JUMPDEST PUSH1 0x0 DUP3 DUP3 MSTORE PUSH1 0x20 DUP3 ADD SWAP1 POP SWAP3 SWAP2 POP POP JUMP JUMPDEST PUSH1 0x0 DUP2 SWAP1 POP PUSH1 0x20 DUP3 ADD SWAP1 POP SWAP2 SWAP1 POP JUMP JUMPDEST PUSH1 0x0 DUP3 DUP3 MSTORE PUSH1 0x20 DUP3 ADD SWAP1 POP SWAP3 SWAP2 POP POP JUMP JUMPDEST PUSH1 0x0 PUSH2 0x25EC DUP3 PUSH2 0x2498 JUMP JUMPDEST PUSH2 0x25F6 DUP2 DUP6 PUSH2 0x25D0 JUMP JUMPDEST SWAP4 POP DUP4 PUSH1 0x20 DUP3 MUL DUP6 ADD PUSH2 0x2608 DUP6 PUSH2 0x24B4 JUMP JUMPDEST DUP1 PUSH1 0x0 JUMPDEST DUP6 DUP2 LT ISZERO PUSH2 0x2644 JUMPI DUP5 DUP5 SUB DUP10 MSTORE DUP2 MLOAD PUSH2 0x2625 DUP6 DUP3 PUSH2 0x250E JUMP JUMPDEST SWAP5 POP PUSH2 0x2630 DUP4 PUSH2 0x2522 JUMP JUMPDEST SWAP3 POP PUSH1 0x20 DUP11 ADD SWAP10 POP POP PUSH1 0x1 DUP2 ADD SWAP1 POP PUSH2 0x260C JUMP JUMPDEST POP DUP3 SWAP8 POP DUP8 SWAP6 POP POP POP POP POP POP SWAP3 SWAP2 POP POP JUMP JUMPDEST PUSH1 0x0 PUSH2 0x2662 DUP4 DUP4 PUSH2 0x25E1 JUMP JUMPDEST SWAP1 POP SWAP3 SWAP2 POP POP JUMP JUMPDEST PUSH1 0x0 PUSH1 0x20 DUP3 ADD SWAP1 POP SWAP2 SWAP1 POP JUMP JUMPDEST PUSH1 0x0 PUSH2 0x2682 DUP3 PUSH2 0x25A4 JUMP JUMPDEST PUSH2 0x268C DUP2 DUP6 PUSH2 0x25AF JUMP JUMPDEST SWAP4 POP DUP4 PUSH1 0x20 DUP3 MUL DUP6 ADD PUSH2 0x269E DUP6 PUSH2 0x25C0 JUMP JUMPDEST DUP1 PUSH1 0x0 JUMPDEST DUP6 DUP2 LT ISZERO PUSH2 0x26DA JUMPI DUP5 DUP5 SUB DUP10 MSTORE DUP2 MLOAD PUSH2 0x26BB DUP6 DUP3 PUSH2 0x2656 JUMP JUMPDEST SWAP5 POP PUSH2 0x26C6 DUP4 PUSH2 0x266A JUMP JUMPDEST SWAP3 POP PUSH1 0x20 DUP11 ADD SWAP10 POP POP PUSH1 0x1 DUP2 ADD SWAP1 POP PUSH2 0x26A2 JUMP JUMPDEST POP DUP3 SWAP8 POP DUP8 SWAP6 POP POP POP POP POP POP SWAP3 SWAP2 POP POP JUMP JUMPDEST PUSH1 0x0 DUP2 MLOAD SWAP1 POP SWAP2 SWAP1 POP JUMP JUMPDEST PUSH1 0x0 DUP3 DUP3 MSTORE PUSH1 0x20 DUP3 ADD SWAP1 POP SWAP3 SWAP2 POP POP JUMP JUMPDEST PUSH1 0x0 DUP2 SWAP1 POP PUSH1 0x20 DUP3 ADD SWAP1 POP SWAP2 SWAP1 POP JUMP JUMPDEST PUSH1 0x0 DUP3 DUP3 MSTORE PUSH1 0x20 DUP3 ADD SWAP1 POP SWAP3 SWAP2 POP POP JUMP JUMPDEST PUSH1 0x0 PUSH2 0x2734 DUP3 PUSH2 0x23DA JUMP JUMPDEST PUSH2 0x273E DUP2 DUP6 PUSH2 0x2718 JUMP JUMPDEST SWAP4 POP PUSH2 0x2749 DUP4 PUSH2 0x23F6 JUMP JUMPDEST DUP1 PUSH1 0x0 JUMPDEST DUP4 DUP2 LT ISZERO PUSH2 0x277A JUMPI DUP2 MLOAD PUSH2 0x2761 DUP9 DUP3 PUSH2 0x2415 JUMP JUMPDEST SWAP8 POP PUSH2 0x276C DUP4 PUSH2 0x242D JUMP JUMPDEST SWAP3 POP POP PUSH1 0x1 DUP2 ADD SWAP1 POP PUSH2 0x274D JUMP JUMPDEST POP DUP6 SWAP4 POP POP POP POP SWAP3 SWAP2 POP POP JUMP JUMPDEST PUSH1 0x0 PUSH2 0x2793 DUP4 DUP4 PUSH2 0x2729 JUMP JUMPDEST SWAP1 POP SWAP3 SWAP2 POP POP JUMP JUMPDEST PUSH1 0x0 PUSH1 0x20 DUP3 ADD SWAP1 POP SWAP2 SWAP1 POP JUMP JUMPDEST PUSH1 0x0 PUSH2 0x27B3 DUP3 PUSH2 0x26EC JUMP JUMPDEST PUSH2 0x27BD DUP2 DUP6 PUSH2 0x26F7 JUMP JUMPDEST SWAP4 POP DUP4 PUSH1 0x20 DUP3 MUL DUP6 ADD PUSH2 0x27CF DUP6 PUSH2 0x2708 JUMP JUMPDEST DUP1 PUSH1 0x0 JUMPDEST DUP6 DUP2 LT ISZERO PUSH2 0x280B JUMPI DUP5 DUP5 SUB DUP10 MSTORE DUP2 MLOAD PUSH2 0x27EC DUP6 DUP3 PUSH2 0x2787 JUMP JUMPDEST SWAP5 POP PUSH2 0x27F7 DUP4 PUSH2 0x279B JUMP JUMPDEST SWAP3 POP PUSH1 0x20 DUP11 ADD SWAP10 POP POP PUSH1 0x1 DUP2 ADD SWAP1 POP PUSH2 0x27D3 JUMP JUMPDEST POP DUP3 SWAP8 POP DUP8 SWAP6 POP POP POP POP POP POP SWAP3 SWAP2 POP POP JUMP JUMPDEST PUSH1 0x0 PUSH1 0xC0 DUP3 ADD SWAP1 POP DUP2 DUP2 SUB PUSH1 0x0 DUP4 ADD MSTORE PUSH2 0x2837 DUP2 DUP10 PUSH2 0x243A JUMP JUMPDEST SWAP1 POP DUP2 DUP2 SUB PUSH1 0x20 DUP4 ADD MSTORE PUSH2 0x284B DUP2 DUP9 PUSH2 0x243A JUMP JUMPDEST SWAP1 POP DUP2 DUP2 SUB PUSH1 0x40 DUP4 ADD MSTORE PUSH2 0x285F DUP2 DUP8 PUSH2 0x243A JUMP JUMPDEST SWAP1 POP DUP2 DUP2 SUB PUSH1 0x60 DUP4 ADD MSTORE PUSH2 0x2873 DUP2 DUP7 PUSH2 0x252F JUMP JUMPDEST SWAP1 POP DUP2 DUP2 SUB PUSH1 0x80 DUP4 ADD MSTORE PUSH2 0x2887 DUP2 DUP6 PUSH2 0x2677 JUMP JUMPDEST SWAP1 POP DUP2 DUP2 SUB PUSH1 0xA0 DUP4 ADD MSTORE PUSH2 0x289B DUP2 DUP5 PUSH2 0x27A8 JUMP JUMPDEST SWAP1 POP SWAP8 SWAP7 POP POP POP POP POP POP POP JUMP JUMPDEST PUSH1 0x0 DUP2 MLOAD SWAP1 POP SWAP2 SWAP1 POP JUMP JUMPDEST PUSH1 0x0 DUP3 DUP3 MSTORE PUSH1 0x20 DUP3 ADD SWAP1 POP SWAP3 SWAP2 POP POP JUMP JUMPDEST PUSH1 0x0 DUP2 SWAP1 POP PUSH1 0x20 DUP3 ADD SWAP1 POP SWAP2 SWAP1 POP JUMP JUMPDEST PUSH2 0x28DD DUP2 PUSH2 0x2002 JUMP JUMPDEST DUP3 MSTORE POP POP JUMP JUMPDEST PUSH1 0x0 PUSH2 0x28EF DUP4 DUP4 PUSH2 0x28D4 JUMP JUMPDEST PUSH1 0x20 DUP4 ADD SWAP1 POP SWAP3 SWAP2 POP POP JUMP JUMPDEST PUSH1 0x0 PUSH1 0x20 DUP3 ADD SWAP1 POP SWAP2 SWAP1 POP JUMP JUMPDEST PUSH1 0x0 PUSH2 0x2913 DUP3 PUSH2 0x28A8 JUMP JUMPDEST PUSH2 0x291D DUP2 DUP6 PUSH2 0x28B3 JUMP JUMPDEST SWAP4 POP PUSH2 0x2928 DUP4 PUSH2 0x28C4 JUMP JUMPDEST DUP1 PUSH1 0x0 JUMPDEST DUP4 DUP2 LT ISZERO PUSH2 0x2959 JUMPI DUP2 MLOAD PUSH2 0x2940 DUP9 DUP3 PUSH2 0x28E3 JUMP JUMPDEST SWAP8 POP PUSH2 0x294B DUP4 PUSH2 0x28FB JUMP JUMPDEST SWAP3 POP POP PUSH1 0x1 DUP2 ADD SWAP1 POP PUSH2 0x292C JUMP JUMPDEST POP DUP6 SWAP4 POP POP POP POP SWAP3 SWAP2 POP POP JUMP JUMPDEST PUSH1 0x0 PUSH1 0xA0 DUP3 ADD SWAP1 POP DUP2 DUP2 SUB PUSH1 0x0 DUP4 ADD MSTORE PUSH2 0x2980 DUP2 DUP9 PUSH2 0x243A JUMP JUMPDEST SWAP1 POP DUP2 DUP2 SUB PUSH1 0x20 DUP4 ADD MSTORE PUSH2 0x2994 DUP2 DUP8 PUSH2 0x252F JUMP JUMPDEST SWAP1 POP DUP2 DUP2 SUB PUSH1 0x40 DUP4 ADD MSTORE PUSH2 0x29A8 DUP2 DUP7 PUSH2 0x243A JUMP JUMPDEST SWAP1 POP DUP2 DUP2 SUB PUSH1 0x60 DUP4 ADD MSTORE PUSH2 0x29BC DUP2 DUP6 PUSH2 0x243A JUMP JUMPDEST SWAP1 POP DUP2 DUP2 SUB PUSH1 0x80 DUP4 ADD MSTORE PUSH2 0x29D0 DUP2 DUP5 PUSH2 0x2908 JUMP JUMPDEST SWAP1 POP SWAP7 SWAP6 POP POP POP POP POP POP JUMP JUMPDEST PUSH1 0x0 DUP1 REVERT JUMPDEST PUSH1 0x0 PUSH8 0xFFFFFFFFFFFFFFFF DUP3 GT ISZERO PUSH2 0x29FC JUMPI PUSH2 0x29FB PUSH2 0x20CB JUMP JUMPDEST JUMPDEST PUSH2 0x2A05 DUP3 PUSH2 0x20BA JUMP JUMPDEST SWAP1 POP PUSH1 0x20 DUP2 ADD SWAP1 POP SWAP2 SWAP1 POP JUMP JUMPDEST DUP3 DUP2 DUP4 CALLDATACOPY PUSH1 0x0 DUP4 DUP4 ADD MSTORE POP POP POP JUMP JUMPDEST PUSH1 0x0 PUSH2 0x2A34 PUSH2 0x2A2F DUP5 PUSH2 0x29E1 JUMP JUMPDEST PUSH2 0x212B JUMP JUMPDEST SWAP1 POP DUP3 DUP2 MSTORE PUSH1 0x20 DUP2 ADD DUP5 DUP5 DUP5 ADD GT ISZERO PUSH2 0x2A50 JUMPI PUSH2 0x2A4F PUSH2 0x29DC JUMP JUMPDEST JUMPDEST PUSH2 0x2A5B DUP5 DUP3 DUP6 PUSH2 0x2A12 JUMP JUMPDEST POP SWAP4 SWAP3 POP POP POP JUMP JUMPDEST PUSH1 0x0 DUP3 PUSH1 0x1F DUP4 ADD SLT PUSH2 0x2A78 JUMPI PUSH2 0x2A77 PUSH2 0x20B5 JUMP JUMPDEST JUMPDEST DUP2 CALLDATALOAD PUSH2 0x2A88 DUP5 DUP3 PUSH1 0x20 DUP7 ADD PUSH2 0x2A21 JUMP JUMPDEST SWAP2 POP POP SWAP3 SWAP2 POP POP JUMP JUMPDEST PUSH1 0x0 PUSH8 0xFFFFFFFFFFFFFFFF DUP3 GT ISZERO PUSH2 0x2AAC JUMPI PUSH2 0x2AAB PUSH2 0x20CB JUMP JUMPDEST JUMPDEST PUSH1 0x20 DUP3 MUL SWAP1 POP PUSH1 0x20 DUP2 ADD SWAP1 POP SWAP2 SWAP1 POP JUMP JUMPDEST PUSH1 0x0 PUSH2 0x2AD0 PUSH2 0x2ACB DUP5 PUSH2 0x2A91 JUMP JUMPDEST PUSH2 0x212B JUMP JUMPDEST SWAP1 POP DUP1 DUP4 DUP3 MSTORE PUSH1 0x20 DUP3 ADD SWAP1 POP PUSH1 0x20 DUP5 MUL DUP4 ADD DUP6 DUP2 GT ISZERO PUSH2 0x2AF3 JUMPI PUSH2 0x2AF2 PUSH2 0x2172 JUMP JUMPDEST JUMPDEST DUP4 JUMPDEST DUP2 DUP2 LT ISZERO PUSH2 0x2B3A JUMPI DUP1 CALLDATALOAD PUSH8 0xFFFFFFFFFFFFFFFF DUP2 GT ISZERO PUSH2 0x2B18 JUMPI PUSH2 0x2B17 PUSH2 0x20B5 JUMP JUMPDEST JUMPDEST DUP1 DUP7 ADD PUSH2 0x2B25 DUP10 DUP3 PUSH2 0x2A63 JUMP JUMPDEST DUP6 MSTORE PUSH1 0x20 DUP6 ADD SWAP5 POP POP POP PUSH1 0x20 DUP2 ADD SWAP1 POP PUSH2 0x2AF5 JUMP JUMPDEST POP POP POP SWAP4 SWAP3 POP POP POP JUMP JUMPDEST PUSH1 0x0 DUP3 PUSH1 0x1F DUP4 ADD SLT PUSH2 0x2B59 JUMPI PUSH2 0x2B58 PUSH2 0x20B5 JUMP JUMPDEST JUMPDEST DUP2 CALLDATALOAD PUSH2 0x2B69 DUP5 DUP3 PUSH1 0x20 DUP7 ADD PUSH2 0x2ABD JUMP JUMPDEST SWAP2 POP POP SWAP3 SWAP2 POP POP JUMP JUMPDEST PUSH1 0x0 DUP1 PUSH1 0x0 DUP1 PUSH1 0x0 DUP1 PUSH1 0xC0 DUP8 DUP10 SUB SLT ISZERO PUSH2 0x2B8F JUMPI PUSH2 0x2B8E PUSH2 0x1E8D JUMP JUMPDEST JUMPDEST PUSH1 0x0 PUSH2 0x2B9D DUP10 DUP3 DUP11 ADD PUSH2 0x1EB8 JUMP JUMPDEST SWAP7 POP POP PUSH1 0x20 DUP8 ADD CALLDATALOAD PUSH8 0xFFFFFFFFFFFFFFFF DUP2 GT ISZERO PUSH2 0x2BBE JUMPI PUSH2 0x2BBD PUSH2 0x1E92 JUMP JUMPDEST JUMPDEST PUSH2 0x2BCA DUP10 DUP3 DUP11 ADD PUSH2 0x2A63 JUMP JUMPDEST SWAP6 POP POP PUSH1 0x40 PUSH2 0x2BDB DUP10 DUP3 DUP11 ADD PUSH2 0x1EB8 JUMP JUMPDEST SWAP5 POP POP PUSH1 0x60 PUSH2 0x2BEC DUP10 DUP3 DUP11 ADD PUSH2 0x1EB8 JUMP JUMPDEST SWAP4 POP POP PUSH1 0x80 PUSH2 0x2BFD DUP10 DUP3 DUP11 ADD PUSH2 0x1EB8 JUMP JUMPDEST SWAP3 POP POP PUSH1 0xA0 DUP8 ADD CALLDATALOAD PUSH8 0xFFFFFFFFFFFFFFFF DUP2 GT ISZERO PUSH2 0x2C1E JUMPI PUSH2 0x2C1D PUSH2 0x1E92 JUMP JUMPDEST JUMPDEST PUSH2 0x2C2A DUP10 DUP3 DUP11 ADD PUSH2 0x2B44 JUMP JUMPDEST SWAP2 POP POP SWAP3 SWAP6 POP SWAP3 SWAP6 POP SWAP3 SWAP6 JUMP JUMPDEST PUSH1 0x0 PUSH1 0x40 DUP3 ADD SWAP1 POP DUP2 DUP2 SUB PUSH1 0x0 DUP4 ADD MSTORE PUSH2 0x2C51 DUP2 DUP6 PUSH2 0x22C3 JUMP JUMPDEST SWAP1 POP PUSH2 0x2C60 PUSH1 0x20 DUP4 ADD DUP5 PUSH2 0x1F3A JUMP JUMPDEST SWAP4 SWAP3 POP POP POP JUMP JUMPDEST PUSH1 0x0 DUP1 PUSH1 0x40 DUP4 DUP6 SUB SLT ISZERO PUSH2 0x2C7E JUMPI PUSH2 0x2C7D PUSH2 0x1E8D JUMP JUMPDEST JUMPDEST PUSH1 0x0 PUSH2 0x2C8C DUP6 DUP3 DUP7 ADD PUSH2 0x1EB8 JUMP JUMPDEST SWAP3 POP POP PUSH1 0x20 DUP4 ADD CALLDATALOAD PUSH8 0xFFFFFFFFFFFFFFFF DUP2 GT ISZERO PUSH2 0x2CAD JUMPI PUSH2 0x2CAC PUSH2 0x1E92 JUMP JUMPDEST JUMPDEST PUSH2 0x2CB9 DUP6 DUP3 DUP7 ADD PUSH2 0x2A63 JUMP JUMPDEST SWAP2 POP POP SWAP3 POP SWAP3 SWAP1 POP JUMP JUMPDEST PUSH32 0x566F746520646F6573206E6F7420657869737400000000000000000000000000 PUSH1 0x0 DUP3 ADD MSTORE POP JUMP JUMPDEST PUSH1 0x0 PUSH2 0x2CF9 PUSH1 0x13 DUP4 PUSH2 0x2288 JUMP JUMPDEST SWAP2 POP PUSH2 0x2D04 DUP3 PUSH2 0x2CC3 JUMP JUMPDEST PUSH1 0x20 DUP3 ADD SWAP1 POP SWAP2 SWAP1 POP JUMP JUMPDEST PUSH1 0x0 PUSH1 0x20 DUP3 ADD SWAP1 POP DUP2 DUP2 SUB PUSH1 0x0 DUP4 ADD MSTORE PUSH2 0x2D28 DUP2 PUSH2 0x2CEC JUMP JUMPDEST SWAP1 POP SWAP2 SWAP1 POP JUMP JUMPDEST PUSH32 0x4E487B7100000000000000000000000000000000000000000000000000000000 PUSH1 0x0 MSTORE PUSH1 0x11 PUSH1 0x4 MSTORE PUSH1 0x24 PUSH1 0x0 REVERT JUMPDEST PUSH1 0x0 PUSH2 0x2D69 DUP3 PUSH2 0x1E97 JUMP JUMPDEST SWAP2 POP PUSH2 0x2D74 DUP4 PUSH2 0x1E97 JUMP JUMPDEST SWAP3 POP DUP3 DUP3 SUB SWAP1 POP DUP2 DUP2 GT ISZERO PUSH2 0x2D8C JUMPI PUSH2 0x2D8B PUSH2 0x2D2F JUMP JUMPDEST JUMPDEST SWAP3 SWAP2 POP POP JUMP JUMPDEST PUSH32 0x4E487B7100000000000000000000000000000000000000000000000000000000 PUSH1 0x0 MSTORE PUSH1 0x32 PUSH1 0x4 MSTORE PUSH1 0x24 PUSH1 0x0 REVERT JUMPDEST PUSH32 0x566F746572206973206E6F74207265676973746572656420666F722074686973 PUSH1 0x0 DUP3 ADD MSTORE PUSH32 0x20766F74652E0000000000000000000000000000000000000000000000000000 PUSH1 0x20 DUP3 ADD MSTORE POP JUMP JUMPDEST PUSH1 0x0 PUSH2 0x2E1D PUSH1 0x26 DUP4 PUSH2 0x2288 JUMP JUMPDEST SWAP2 POP PUSH2 0x2E28 DUP3 PUSH2 0x2DC1 JUMP JUMPDEST PUSH1 0x40 DUP3 ADD SWAP1 POP SWAP2 SWAP1 POP JUMP JUMPDEST PUSH1 0x0 PUSH1 0x20 DUP3 ADD SWAP1 POP DUP2 DUP2 SUB PUSH1 0x0 DUP4 ADD MSTORE PUSH2 0x2E4C DUP2 PUSH2 0x2E10 JUMP JUMPDEST SWAP1 POP SWAP2 SWAP1 POP JUMP JUMPDEST PUSH32 0x566F7465722068617320616C726561647920766F7465642E0000000000000000 PUSH1 0x0 DUP3 ADD MSTORE POP JUMP JUMPDEST PUSH1 0x0 PUSH2 0x2E89 PUSH1 0x18 DUP4 PUSH2 0x2288 JUMP JUMPDEST SWAP2 POP PUSH2 0x2E94 DUP3 PUSH2 0x2E53 JUMP JUMPDEST PUSH1 0x20 DUP3 ADD SWAP1 POP SWAP2 SWAP1 POP JUMP JUMPDEST PUSH1 0x0 PUSH1 0x20 DUP3 ADD SWAP1 POP DUP2 DUP2 SUB PUSH1 0x0 DUP4 ADD MSTORE PUSH2 0x2EB8 DUP2 PUSH2 0x2E7C JUMP JUMPDEST SWAP1 POP SWAP2 SWAP1 POP JUMP JUMPDEST PUSH1 0x0 PUSH2 0x2ECA DUP3 PUSH2 0x1E97 JUMP JUMPDEST SWAP2 POP PUSH2 0x2ED5 DUP4 PUSH2 0x1E97 JUMP JUMPDEST SWAP3 POP DUP3 DUP3 ADD SWAP1 POP DUP1 DUP3 GT ISZERO PUSH2 0x2EED JUMPI PUSH2 0x2EEC PUSH2 0x2D2F JUMP JUMPDEST JUMPDEST SWAP3 SWAP2 POP POP JUMP JUMPDEST PUSH32 0x566F74696E67206973206E6F742063757272656E746C79206163746976652E00 PUSH1 0x0 DUP3 ADD MSTORE POP JUMP JUMPDEST PUSH1 0x0 PUSH2 0x2F29 PUSH1 0x1F DUP4 PUSH2 0x2288 JUMP JUMPDEST SWAP2 POP PUSH2 0x2F34 DUP3 PUSH2 0x2EF3 JUMP JUMPDEST PUSH1 0x20 DUP3 ADD SWAP1 POP SWAP2 SWAP1 POP JUMP JUMPDEST PUSH1 0x0 PUSH1 0x20 DUP3 ADD SWAP1 POP DUP2 DUP2 SUB PUSH1 0x0 DUP4 ADD MSTORE PUSH2 0x2F58 DUP2 PUSH2 0x2F1C JUMP JUMPDEST SWAP1 POP SWAP2 SWAP1 POP JUMP JUMPDEST PUSH32 0x566F746572206973206E6F742070617274206F66207468652067726F75702066 PUSH1 0x0 DUP3 ADD MSTORE PUSH32 0x6F72207468697320766F74652E00000000000000000000000000000000000000 PUSH1 0x20 DUP3 ADD MSTORE POP JUMP JUMPDEST PUSH1 0x0 PUSH2 0x2FBB PUSH1 0x2D DUP4 PUSH2 0x2288 JUMP JUMPDEST SWAP2 POP PUSH2 0x2FC6 DUP3 PUSH2 0x2F5F JUMP JUMPDEST PUSH1 0x40 DUP3 ADD SWAP1 POP SWAP2 SWAP1 POP JUMP JUMPDEST PUSH1 0x0 PUSH1 0x20 DUP3 ADD SWAP1 POP DUP2 DUP2 SUB PUSH1 0x0 DUP4 ADD MSTORE PUSH2 0x2FEA DUP2 PUSH2 0x2FAE JUMP JUMPDEST SWAP1 POP SWAP2 SWAP1 POP JUMP JUMPDEST PUSH1 0x0 PUSH2 0x2FFC DUP3 PUSH2 0x1E97 JUMP JUMPDEST SWAP2 POP PUSH32 0xFFFFFFFFFFFFFFFFFFFFFFFFFFFFFFFFFFFFFFFFFFFFFFFFFFFFFFFFFFFFFFFF DUP3 SUB PUSH2 0x302E JUMPI PUSH2 0x302D PUSH2 0x2D2F JUMP JUMPDEST JUMPDEST PUSH1 0x1 DUP3 ADD SWAP1 POP SWAP2 SWAP1 POP JUMP JUMPDEST PUSH32 0x4F6E6C79207468652041646D696E6973747261746F7220616C6C6F776564206D PUSH1 0x0 DUP3 ADD MSTORE PUSH32 0x616B65207468697320616374696F6E0000000000000000000000000000000000 PUSH1 0x20 DUP3 ADD MSTORE POP JUMP JUMPDEST PUSH1 0x0 PUSH2 0x3095 PUSH1 0x2F DUP4 PUSH2 0x2288 JUMP JUMPDEST SWAP2 POP PUSH2 0x30A0 DUP3 PUSH2 0x3039 JUMP JUMPDEST PUSH1 0x40 DUP3 ADD SWAP1 POP SWAP2 SWAP1 POP JUMP JUMPDEST PUSH1 0x0 PUSH1 0x20 DUP3 ADD SWAP1 POP DUP2 DUP2 SUB PUSH1 0x0 DUP4 ADD MSTORE PUSH2 0x30C4 DUP2 PUSH2 0x3088 JUMP JUMPDEST SWAP1 POP SWAP2 SWAP1 POP JUMP JUMPDEST PUSH32 0x566F74696E672074696D652068617320656E6465642E00000000000000000000 PUSH1 0x0 DUP3 ADD MSTORE POP JUMP JUMPDEST PUSH1 0x0 PUSH2 0x3101 PUSH1 0x16 DUP4 PUSH2 0x2288 JUMP JUMPDEST SWAP2 POP PUSH2 0x310C DUP3 PUSH2 0x30CB JUMP JUMPDEST PUSH1 0x20 DUP3 ADD SWAP1 POP SWAP2 SWAP1 POP JUMP JUMPDEST PUSH1 0x0 PUSH1 0x20 DUP3 ADD SWAP1 POP DUP2 DUP2 SUB PUSH1 0x0 DUP4 ADD MSTORE PUSH2 0x3130 DUP2 PUSH2 0x30F4 JUMP JUMPDEST SWAP1 POP SWAP2 SWAP1 POP JUMP JUMPDEST PUSH32 0x4E487B7100000000000000000000000000000000000000000000000000000000 PUSH1 0x0 MSTORE PUSH1 0x22 PUSH1 0x4 MSTORE PUSH1 0x24 PUSH1 0x0 REVERT JUMPDEST PUSH1 0x0 PUSH1 0x2 DUP3 DIV SWAP1 POP PUSH1 0x1 DUP3 AND DUP1 PUSH2 0x317E JUMPI PUSH1 0x7F DUP3 AND SWAP2 POP JUMPDEST PUSH1 0x20 DUP3 LT DUP2 SUB PUSH2 0x3191 JUMPI PUSH2 0x3190 PUSH2 0x3137 JUMP JUMPDEST JUMPDEST POP SWAP2 SWAP1 POP JUMP JUMPDEST PUSH1 0x0 DUP2 SWAP1 POP DUP2 PUSH1 0x0 MSTORE PUSH1 0x20 PUSH1 0x0 KECCAK256 SWAP1 POP SWAP2 SWAP1 POP JUMP JUMPDEST PUSH1 0x0 PUSH1 0x20 PUSH1 0x1F DUP4 ADD DIV SWAP1 POP SWAP2 SWAP1 POP JUMP JUMPDEST PUSH1 0x0 DUP3 DUP3 SHL SWAP1 POP SWAP3 SWAP2 POP POP JUMP JUMPDEST PUSH1 0x0 PUSH1 0x8 DUP4 MUL PUSH2 0x31F9 PUSH32 0xFFFFFFFFFFFFFFFFFFFFFFFFFFFFFFFFFFFFFFFFFFFFFFFFFFFFFFFFFFFFFFFF DUP3 PUSH2 0x31BC JUMP JUMPDEST PUSH2 0x3203 DUP7 DUP4 PUSH2 0x31BC JUMP JUMPDEST SWAP6 POP DUP1 NOT DUP5 AND SWAP4 POP DUP1 DUP7 AND DUP5 OR SWAP3 POP POP POP SWAP4 SWAP3 POP POP POP JUMP JUMPDEST PUSH1 0x0 DUP2 SWAP1 POP SWAP2 SWAP1 POP JUMP JUMPDEST PUSH1 0x0 PUSH2 0x3240 PUSH2 0x323B PUSH2 0x3236 DUP5 PUSH2 0x1E97 JUMP JUMPDEST PUSH2 0x321B JUMP JUMPDEST PUSH2 0x1E97 JUMP JUMPDEST SWAP1 POP SWAP2 SWAP1 POP JUMP JUMPDEST PUSH1 0x0 DUP2 SWAP1 POP SWAP2 SWAP1 POP JUMP JUMPDEST PUSH2 0x325A DUP4 PUSH2 0x3225 JUMP JUMPDEST PUSH2 0x326E PUSH2 0x3266 DUP3 PUSH2 0x3247 JUMP JUMPDEST DUP5 DUP5 SLOAD PUSH2 0x31C9 JUMP JUMPDEST DUP3 SSTORE POP POP POP POP JUMP JUMPDEST PUSH1 0x0 SWAP1 JUMP JUMPDEST PUSH2 0x3283 PUSH2 0x3276 JUMP JUMPDEST PUSH2 0x328E DUP2 DUP5 DUP5 PUSH2 0x3251 JUMP JUMPDEST POP POP POP JUMP JUMPDEST JUMPDEST DUP2 DUP2 LT ISZERO PUSH2 0x32B2 JUMPI PUSH2 0x32A7 PUSH1 0x0 DUP3 PUSH2 0x327B JUMP JUMPDEST PUSH1 0x1 DUP2 ADD SWAP1 POP PUSH2 0x3294 JUMP JUMPDEST POP POP JUMP JUMPDEST PUSH1 0x1F DUP3 GT ISZERO PUSH2 0x32F7 JUMPI PUSH2 0x32C8 DUP2 PUSH2 0x3197 JUMP JUMPDEST PUSH2 0x32D1 DUP5 PUSH2 0x31AC JUMP JUMPDEST DUP2 ADD PUSH1 0x20 DUP6 LT ISZERO PUSH2 0x32E0 JUMPI DUP2 SWAP1 POP JUMPDEST PUSH2 0x32F4 PUSH2 0x32EC DUP6 PUSH2 0x31AC JUMP JUMPDEST DUP4 ADD DUP3 PUSH2 0x3293 JUMP JUMPDEST POP POP JUMPDEST POP POP POP JUMP JUMPDEST PUSH1 0x0 DUP3 DUP3 SHR SWAP1 POP SWAP3 SWAP2 POP POP JUMP JUMPDEST PUSH1 0x0 PUSH2 0x331A PUSH1 0x0 NOT DUP5 PUSH1 0x8 MUL PUSH2 0x32FC JUMP JUMPDEST NOT DUP1 DUP4 AND SWAP2 POP POP SWAP3 SWAP2 POP POP JUMP JUMPDEST PUSH1 0x0 PUSH2 0x3333 DUP4 DUP4 PUSH2 0x3309 JUMP JUMPDEST SWAP2 POP DUP3 PUSH1 0x2 MUL DUP3 OR SWAP1 POP SWAP3 SWAP2 POP POP JUMP JUMPDEST PUSH2 0x334C DUP3 PUSH2 0x227D JUMP JUMPDEST PUSH8 0xFFFFFFFFFFFFFFFF DUP2 GT ISZERO PUSH2 0x3365 JUMPI PUSH2 0x3364 PUSH2 0x20CB JUMP JUMPDEST JUMPDEST PUSH2 0x336F DUP3 SLOAD PUSH2 0x3166 JUMP JUMPDEST PUSH2 0x337A DUP3 DUP3 DUP6 PUSH2 0x32B6 JUMP JUMPDEST PUSH1 0x0 PUSH1 0x20 SWAP1 POP PUSH1 0x1F DUP4 GT PUSH1 0x1 DUP2 EQ PUSH2 0x33AD JUMPI PUSH1 0x0 DUP5 ISZERO PUSH2 0x339B JUMPI DUP3 DUP8 ADD MLOAD SWAP1 POP JUMPDEST PUSH2 0x33A5 DUP6 DUP3 PUSH2 0x3327 JUMP JUMPDEST DUP7 SSTORE POP PUSH2 0x340D JUMP JUMPDEST PUSH1 0x1F NOT DUP5 AND PUSH2 0x33BB DUP7 PUSH2 0x3197 JUMP JUMPDEST PUSH1 0x0 JUMPDEST DUP3 DUP2 LT ISZERO PUSH2 0x33E3 JUMPI DUP5 DUP10 ADD MLOAD DUP3 SSTORE PUSH1 0x1 DUP3 ADD SWAP2 POP PUSH1 0x20 DUP6 ADD SWAP5 POP PUSH1 0x20 DUP2 ADD SWAP1 POP PUSH2 0x33BE JUMP JUMPDEST DUP7 DUP4 LT ISZERO PUSH2 0x3400 JUMPI DUP5 DUP10 ADD MLOAD PUSH2 0x33FC PUSH1 0x1F DUP10 AND DUP3 PUSH2 0x3309 JUMP JUMPDEST DUP4 SSTORE POP JUMPDEST PUSH1 0x1 PUSH1 0x2 DUP9 MUL ADD DUP9 SSTORE POP POP POP JUMPDEST POP POP POP POP POP POP JUMP INVALID LOG2 PUSH5 0x6970667358 0x22 SLT KECCAK256 EXTCODESIZE MSTORE8 ADD MULMOD 0xBA JUMPI 0xAB 0xF8 DUP11 DUP4 PUSH19 0x9603A9DD96575E1CC6D321268788C0F93E9521 0xC6 0xE2 PUSH5 0x736F6C6343 STOP ADDMOD XOR STOP CALLER "},"methodIdentifiers":{"addOneVoter(uint256,address,uint256)":"485660a1","addOption(uint256,string)":"ea57d5d4","addVoters(uint256,address[],uint256)":"5a3d4a3c","admin()":"f851a440","castVote(uint256,uint256)":"2c0a3f89","createVote(uint256,string,uint256,uint256,uint256,string[])":"c6e6a82b","getAccessibleVotes(uint256)":"8ef42c55","getOptionDetails(uint256,uint256)":"e1190243","getOptionsCount(uint256)":"517a6257","getTotalVotes(uint256)":"2ce35e11","getVote(uint256)":"5a55c1f0","getVoteResults()":"86a66dc3","hasVoted(uint256,address)":"43859632","nextVoteID()":"ab2f9631","voteAdmins(uint256)":"57267754","votes(uint256)":"5df81330"}}}}}